{
  "contractName": "Marketplace",
  "abi": [
    {
      "inputs": [
        {
          "internalType": "uint256",
          "name": "fee",
          "type": "uint256"
        },
        {
          "internalType": "address",
          "name": "feeRecipient",
          "type": "address"
        }
      ],
      "stateMutability": "nonpayable",
      "type": "constructor"
    },
    {
      "anonymous": false,
      "inputs": [
        {
          "indexed": true,
          "internalType": "address",
          "name": "previousOwner",
          "type": "address"
        },
        {
          "indexed": true,
          "internalType": "address",
          "name": "newOwner",
          "type": "address"
        }
      ],
      "name": "OwnershipTransferred",
      "type": "event"
    },
    {
      "inputs": [],
      "name": "owner",
      "outputs": [
        {
          "internalType": "address",
          "name": "",
          "type": "address"
        }
      ],
      "stateMutability": "view",
      "type": "function"
    },
    {
      "inputs": [],
      "name": "renounceOwnership",
      "outputs": [],
      "stateMutability": "nonpayable",
      "type": "function"
    },
    {
      "inputs": [
        {
          "internalType": "address",
          "name": "newOwner",
          "type": "address"
        }
      ],
      "name": "transferOwnership",
      "outputs": [],
      "stateMutability": "nonpayable",
      "type": "function"
    },
    {
      "inputs": [],
      "name": "getMarketplaceFee",
      "outputs": [
        {
          "internalType": "uint256",
          "name": "",
          "type": "uint256"
        }
      ],
      "stateMutability": "view",
      "type": "function"
    },
    {
      "inputs": [],
      "name": "getMarketplaceFeeRecipient",
      "outputs": [
        {
          "internalType": "address",
          "name": "",
          "type": "address"
        }
      ],
      "stateMutability": "view",
      "type": "function"
    },
    {
      "inputs": [
        {
          "internalType": "uint256",
          "name": "fee",
          "type": "uint256"
        }
      ],
      "name": "setMarketplaceFee",
      "outputs": [],
      "stateMutability": "nonpayable",
      "type": "function"
    },
    {
      "inputs": [
        {
          "internalType": "address",
          "name": "recipient",
          "type": "address"
        }
      ],
      "name": "setMarketplaceFeeRecipient",
      "outputs": [],
      "stateMutability": "nonpayable",
      "type": "function"
    },
    {
      "inputs": [
        {
          "internalType": "address",
          "name": "nftAddress",
          "type": "address"
        },
        {
          "internalType": "address",
          "name": "receiver",
          "type": "address"
        },
        {
          "internalType": "uint256",
          "name": "tokenId",
          "type": "uint256"
        },
        {
          "internalType": "string",
          "name": "tokenUri",
          "type": "string"
        }
      ],
      "name": "mintAsset",
      "outputs": [],
      "stateMutability": "nonpayable",
      "type": "function"
    },
    {
      "inputs": [
        {
          "internalType": "address",
          "name": "nftAddress",
          "type": "address"
        },
        {
          "internalType": "uint256",
          "name": "tokenId",
          "type": "uint256"
        },
        {
          "internalType": "string",
          "name": "tokenUri",
          "type": "string"
        },
        {
          "internalType": "address",
          "name": "seller",
          "type": "address"
        },
        {
          "internalType": "uint256",
          "name": "amount",
          "type": "uint256"
        },
        {
          "internalType": "bool",
          "name": "isInternalAddress",
          "type": "bool"
        }
      ],
      "name": "buyAsset",
      "outputs": [],
      "stateMutability": "payable",
      "type": "function"
    }
  ],
  "bytecode": "0x60806040523480156200001157600080fd5b506040516200154e3803806200154e833981810160405281019062000037919062000218565b620000576200004b620000a760201b60201c565b620000af60201b60201c565b8160018190555080600260006101000a81548173ffffffffffffffffffffffffffffffffffffffff021916908373ffffffffffffffffffffffffffffffffffffffff16021790555050506200025f565b600033905090565b60008060009054906101000a900473ffffffffffffffffffffffffffffffffffffffff169050816000806101000a81548173ffffffffffffffffffffffffffffffffffffffff021916908373ffffffffffffffffffffffffffffffffffffffff1602179055508173ffffffffffffffffffffffffffffffffffffffff168173ffffffffffffffffffffffffffffffffffffffff167f8be0079c531659141344cd1fd0a4f28419497f9722a3daafe3b4186f6b6457e060405160405180910390a35050565b600080fd5b6000819050919050565b6200018d8162000178565b81146200019957600080fd5b50565b600081519050620001ad8162000182565b92915050565b600073ffffffffffffffffffffffffffffffffffffffff82169050919050565b6000620001e082620001b3565b9050919050565b620001f281620001d3565b8114620001fe57600080fd5b50565b6000815190506200021281620001e7565b92915050565b6000806040838503121562000232576200023162000173565b5b600062000242858286016200019c565b9250506020620002558582860162000201565b9150509250929050565b6112df806200026f6000396000f3fe6080604052600436106100865760003560e01c806356f5133e1161005957806356f5133e14610133578063715018a61461014f5780638da5cb5b146101665780639407ea9814610191578063f2fde38b146101ba57610086565b80631e2ea2a31461008b57806326a7b37b146100b45780633ea031cc146100df5780634ffa2be214610108575b600080fd5b34801561009757600080fd5b506100b260048036038101906100ad9190610a43565b6101e3565b005b3480156100c057600080fd5b506100c96102a3565b6040516100d69190610a89565b60405180910390f35b3480156100eb57600080fd5b5061010660048036038101906101019190610c16565b6102ad565b005b34801561011457600080fd5b5061011d610322565b60405161012a9190610ca8565b60405180910390f35b61014d60048036038101906101489190610cfb565b61034c565b005b34801561015b57600080fd5b506101646105e4565b005b34801561017257600080fd5b5061017b61066c565b6040516101889190610ca8565b60405180910390f35b34801561019d57600080fd5b506101b860048036038101906101b39190610da4565b610695565b005b3480156101c657600080fd5b506101e160048036038101906101dc9190610a43565b61071b565b005b6101eb610812565b73ffffffffffffffffffffffffffffffffffffffff1661020961066c565b73ffffffffffffffffffffffffffffffffffffffff161461025f576040517f08c379a000000000000000000000000000000000000000000000000000000000815260040161025690610e2e565b60405180910390fd5b80600260006101000a81548173ffffffffffffffffffffffffffffffffffffffff021916908373ffffffffffffffffffffffffffffffffffffffff16021790555050565b6000600154905090565b8373ffffffffffffffffffffffffffffffffffffffff1663d3fc98648484846040518463ffffffff1660e01b81526004016102ea93929190610ec5565b600060405180830381600087803b15801561030457600080fd5b505af1158015610318573d6000803e3d6000fd5b5050505050505050565b6000600260009054906101000a900473ffffffffffffffffffffffffffffffffffffffff16905090565b60006127106103666001548561081a90919063ffffffff16565b6103709190610f61565b90506000610387828561083090919063ffffffff16565b9050348111156103cc576040517f08c379a00000000000000000000000000000000000000000000000000000000081526004016103c390610fde565b60405180910390fd5b600033905061041c83600260009054906101000a900473ffffffffffffffffffffffffffffffffffffffff1673ffffffffffffffffffffffffffffffffffffffff1661084690919063ffffffff16565b61046783600260009054906101000a900473ffffffffffffffffffffffffffffffffffffffff1673ffffffffffffffffffffffffffffffffffffffff1661084690919063ffffffff16565b6104a261047d84876108f790919063ffffffff16565b8773ffffffffffffffffffffffffffffffffffffffff1661084690919063ffffffff16565b60006104b783346108f790919063ffffffff16565b905060008111156104ec576104eb818373ffffffffffffffffffffffffffffffffffffffff1661084690919063ffffffff16565b5b8415610568578973ffffffffffffffffffffffffffffffffffffffff1663c5d3e9998a8a8a866040518563ffffffff1660e01b81526004016105319493929190610ffe565b600060405180830381600087803b15801561054b57600080fd5b505af115801561055f573d6000803e3d6000fd5b505050506105d8565b8973ffffffffffffffffffffffffffffffffffffffff166323b872dd88848c6040518463ffffffff1660e01b81526004016105a59392919061104a565b600060405180830381600087803b1580156105bf57600080fd5b505af11580156105d3573d6000803e3d6000fd5b505050505b50505050505050505050565b6105ec610812565b73ffffffffffffffffffffffffffffffffffffffff1661060a61066c565b73ffffffffffffffffffffffffffffffffffffffff1614610660576040517f08c379a000000000000000000000000000000000000000000000000000000000815260040161065790610e2e565b60405180910390fd5b61066a600061090d565b565b60008060009054906101000a900473ffffffffffffffffffffffffffffffffffffffff16905090565b61069d610812565b73ffffffffffffffffffffffffffffffffffffffff166106bb61066c565b73ffffffffffffffffffffffffffffffffffffffff1614610711576040517f08c379a000000000000000000000000000000000000000000000000000000000815260040161070890610e2e565b60405180910390fd5b8060018190555050565b610723610812565b73ffffffffffffffffffffffffffffffffffffffff1661074161066c565b73ffffffffffffffffffffffffffffffffffffffff1614610797576040517f08c379a000000000000000000000000000000000000000000000000000000000815260040161078e90610e2e565b60405180910390fd5b600073ffffffffffffffffffffffffffffffffffffffff168173ffffffffffffffffffffffffffffffffffffffff1603610806576040517f08c379a00000000000000000000000000000000000000000000000000000000081526004016107fd906110f3565b60405180910390fd5b61080f8161090d565b50565b600033905090565b600081836108289190611113565b905092915050565b6000818361083e919061116d565b905092915050565b60008273ffffffffffffffffffffffffffffffffffffffff168260405161086c906111f4565b60006040518083038185875af1925050503d80600081146108a9576040519150601f19603f3d011682016040523d82523d6000602084013e6108ae565b606091505b50509050806108f2576040517f08c379a00000000000000000000000000000000000000000000000000000000081526004016108e990611255565b60405180910390fd5b505050565b600081836109059190611275565b905092915050565b60008060009054906101000a900473ffffffffffffffffffffffffffffffffffffffff169050816000806101000a81548173ffffffffffffffffffffffffffffffffffffffff021916908373ffffffffffffffffffffffffffffffffffffffff1602179055508173ffffffffffffffffffffffffffffffffffffffff168173ffffffffffffffffffffffffffffffffffffffff167f8be0079c531659141344cd1fd0a4f28419497f9722a3daafe3b4186f6b6457e060405160405180910390a35050565b6000604051905090565b600080fd5b600080fd5b600073ffffffffffffffffffffffffffffffffffffffff82169050919050565b6000610a10826109e5565b9050919050565b610a2081610a05565b8114610a2b57600080fd5b50565b600081359050610a3d81610a17565b92915050565b600060208284031215610a5957610a586109db565b5b6000610a6784828501610a2e565b91505092915050565b6000819050919050565b610a8381610a70565b82525050565b6000602082019050610a9e6000830184610a7a565b92915050565b610aad81610a70565b8114610ab857600080fd5b50565b600081359050610aca81610aa4565b92915050565b600080fd5b600080fd5b6000601f19601f8301169050919050565b7f4e487b7100000000000000000000000000000000000000000000000000000000600052604160045260246000fd5b610b2382610ada565b810181811067ffffffffffffffff82111715610b4257610b41610aeb565b5b80604052505050565b6000610b556109d1565b9050610b618282610b1a565b919050565b600067ffffffffffffffff821115610b8157610b80610aeb565b5b610b8a82610ada565b9050602081019050919050565b82818337600083830152505050565b6000610bb9610bb484610b66565b610b4b565b905082815260208101848484011115610bd557610bd4610ad5565b5b610be0848285610b97565b509392505050565b600082601f830112610bfd57610bfc610ad0565b5b8135610c0d848260208601610ba6565b91505092915050565b60008060008060808587031215610c3057610c2f6109db565b5b6000610c3e87828801610a2e565b9450506020610c4f87828801610a2e565b9350506040610c6087828801610abb565b925050606085013567ffffffffffffffff811115610c8157610c806109e0565b5b610c8d87828801610be8565b91505092959194509250565b610ca281610a05565b82525050565b6000602082019050610cbd6000830184610c99565b92915050565b60008115159050919050565b610cd881610cc3565b8114610ce357600080fd5b50565b600081359050610cf581610ccf565b92915050565b60008060008060008060c08789031215610d1857610d176109db565b5b6000610d2689828a01610a2e565b9650506020610d3789828a01610abb565b955050604087013567ffffffffffffffff811115610d5857610d576109e0565b5b610d6489828a01610be8565b9450506060610d7589828a01610a2e565b9350506080610d8689828a01610abb565b92505060a0610d9789828a01610ce6565b9150509295509295509295565b600060208284031215610dba57610db96109db565b5b6000610dc884828501610abb565b91505092915050565b600082825260208201905092915050565b7f4f776e61626c653a2063616c6c6572206973206e6f7420746865206f776e6572600082015250565b6000610e18602083610dd1565b9150610e2382610de2565b602082019050919050565b60006020820190508181036000830152610e4781610e0b565b9050919050565b600081519050919050565b60005b83811015610e77578082015181840152602081019050610e5c565b83811115610e86576000848401525b50505050565b6000610e9782610e4e565b610ea18185610dd1565b9350610eb1818560208601610e59565b610eba81610ada565b840191505092915050565b6000606082019050610eda6000830186610c99565b610ee76020830185610a7a565b8181036040830152610ef98184610e8c565b9050949350505050565b7f4e487b7100000000000000000000000000000000000000000000000000000000600052601260045260246000fd5b7f4e487b7100000000000000000000000000000000000000000000000000000000600052601160045260246000fd5b6000610f6c82610a70565b9150610f7783610a70565b925082610f8757610f86610f03565b5b828204905092915050565b7f496e73756666696369656e7420416d6f756e7420737570706c69656400000000600082015250565b6000610fc8601c83610dd1565b9150610fd382610f92565b602082019050919050565b60006020820190508181036000830152610ff781610fbb565b9050919050565b60006080820190506110136000830187610a7a565b81810360208301526110258186610e8c565b90506110346040830185610c99565b6110416060830184610c99565b95945050505050565b600060608201905061105f6000830186610c99565b61106c6020830185610c99565b6110796040830184610a7a565b949350505050565b7f4f776e61626c653a206e6577206f776e657220697320746865207a65726f206160008201527f6464726573730000000000000000000000000000000000000000000000000000602082015250565b60006110dd602683610dd1565b91506110e882611081565b604082019050919050565b6000602082019050818103600083015261110c816110d0565b9050919050565b600061111e82610a70565b915061112983610a70565b9250817fffffffffffffffffffffffffffffffffffffffffffffffffffffffffffffffff048311821515161561116257611161610f32565b5b828202905092915050565b600061117882610a70565b915061118383610a70565b9250827fffffffffffffffffffffffffffffffffffffffffffffffffffffffffffffffff038211156111b8576111b7610f32565b5b828201905092915050565b600081905092915050565b50565b60006111de6000836111c3565b91506111e9826111ce565b600082019050919050565b60006111ff826111d1565b9150819050919050565b7f7472616e73666572206661696c65640000000000000000000000000000000000600082015250565b600061123f600f83610dd1565b915061124a82611209565b602082019050919050565b6000602082019050818103600083015261126e81611232565b9050919050565b600061128082610a70565b915061128b83610a70565b92508282101561129e5761129d610f32565b5b82820390509291505056fea26469706673582212204c8e66798c9746afedc15747546079a7fbfa43ddebdfc090fca79639274a5aec64736f6c634300080d0033",
  "immutableReferences": {},
  "source": "// SPDX-License-Identifier: MIT\n\npragma solidity ^0.8.1;\n\nimport \"@openzeppelin/contracts/token/ERC721/IERC721.sol\";\nimport \"@openzeppelin/contracts/utils/math/SafeMath.sol\";\nimport \"@openzeppelin/contracts/access/Ownable.sol\";\nimport \"./IERC721Lazy.sol\";\nimport \"./lib/LibTransfer.sol\";\n\ncontract Marketplace is Ownable{\n\n    using SafeMath for uint256;\n    using LibTransfer for address;\n\n    uint256 private _marketplaceFee;\n    address private _marketplaceFeeRecipient;\n\n    constructor(uint256 fee, address feeRecipient) {\n        _marketplaceFee = fee;\n        _marketplaceFeeRecipient = feeRecipient;\n    }\n\n    function getMarketplaceFee() public view virtual returns (uint256) {\n        return _marketplaceFee;\n    }\n\n    function getMarketplaceFeeRecipient()\n    public\n    view\n    virtual\n    returns (address)\n    {\n        return _marketplaceFeeRecipient;\n    }\n\n    function setMarketplaceFee(uint256 fee) public virtual onlyOwner {\n        _marketplaceFee = fee;\n    }\n\n    function setMarketplaceFeeRecipient(address recipient)\n    public\n    virtual\n    onlyOwner\n    {\n        _marketplaceFeeRecipient = recipient;\n    }\n\n    function mintAsset(address nftAddress, address receiver, uint256 tokenId, string memory tokenUri) public {\n        IERC721LazyMint(nftAddress).mint(receiver, tokenId, tokenUri);\n    }\n\n    function buyAsset(address nftAddress, uint256 tokenId, string memory tokenUri, address seller, uint256 amount, bool isInternalAddress) external payable{\n        \n        uint256 fee = (amount.mul(_marketplaceFee)) / 10000;\n        uint256 totalAmount = amount.add(fee);\n        require(totalAmount<=msg.value, \"Insufficient Amount supplied\");\n\n        address buyer = msg.sender;\n            \n        // payable to platform from buyer\n        address(_marketplaceFeeRecipient).transferEth(fee);\n\n        // payable to platform from seller\n        address(_marketplaceFeeRecipient).transferEth(fee);\n\n        // payable to seller\n        address(seller).transferEth(amount.sub(fee));\n\n        // rest amount paid back to sender\n        uint256 rest = msg.value.sub(totalAmount);\n\n        if(rest>0){\n            address(buyer).transferEth(rest);\n        }\n\n        if(isInternalAddress){\n            // transfer and mint\n            IERC721LazyMint(nftAddress).transferFromOrMint(tokenId, tokenUri, seller, buyer);\n        } else {\n            IERC721(nftAddress).transferFrom(seller, buyer, tokenId);\n        }\n    }\n\n}",
  "sourcePath": "/home/mohan/NFTTRONE/nft_marketplace_backend/smart_contracts/marketplace/contracts/Marketplace.sol",
  "compiler": {
    "name": "solc",
    "version": "0.8.13+commit.abaa5c0e.Emscripten.clang"
  },
  "schemaVersion": "3.4.9",
  "updatedAt": "2022-12-02T09:22:23.017Z",
  "devdoc": {
    "kind": "dev",
    "methods": {
      "owner()": {
        "details": "Returns the address of the current owner."
      },
      "renounceOwnership()": {
        "details": "Leaves the contract without owner. It will not be possible to call `onlyOwner` functions anymore. Can only be called by the current owner. NOTE: Renouncing ownership will leave the contract without an owner, thereby removing any functionality that is only available to the owner."
      },
      "transferOwnership(address)": {
        "details": "Transfers ownership of the contract to a new account (`newOwner`). Can only be called by the current owner."
      }
    },
    "version": 1
  },
  "userdoc": {
    "kind": "user",
    "methods": {},
    "version": 1
  }
}