{
  "contractName": "MarketplaceSecure",
  "abi": [
    {
      "inputs": [
        {
          "internalType": "uint256",
          "name": "fee",
          "type": "uint256"
        },
        {
          "internalType": "address",
          "name": "feeRecipient",
          "type": "address"
        }
      ],
      "stateMutability": "nonpayable",
      "type": "constructor"
    },
    {
      "anonymous": false,
      "inputs": [
        {
          "indexed": true,
          "internalType": "address",
          "name": "previousOwner",
          "type": "address"
        },
        {
          "indexed": true,
          "internalType": "address",
          "name": "newOwner",
          "type": "address"
        }
      ],
      "name": "OwnershipTransferred",
      "type": "event"
    },
    {
      "inputs": [],
      "name": "owner",
      "outputs": [
        {
          "internalType": "address",
          "name": "",
          "type": "address"
        }
      ],
      "stateMutability": "view",
      "type": "function"
    },
    {
      "inputs": [],
      "name": "renounceOwnership",
      "outputs": [],
      "stateMutability": "nonpayable",
      "type": "function"
    },
    {
      "inputs": [
        {
          "internalType": "address",
          "name": "newOwner",
          "type": "address"
        }
      ],
      "name": "transferOwnership",
      "outputs": [],
      "stateMutability": "nonpayable",
      "type": "function"
    },
    {
      "inputs": [],
      "name": "getMarketplaceFee",
      "outputs": [
        {
          "internalType": "uint256",
          "name": "",
          "type": "uint256"
        }
      ],
      "stateMutability": "view",
      "type": "function"
    },
    {
      "inputs": [],
      "name": "getMarketplaceFeeRecipient",
      "outputs": [
        {
          "internalType": "address",
          "name": "",
          "type": "address"
        }
      ],
      "stateMutability": "view",
      "type": "function"
    },
    {
      "inputs": [
        {
          "internalType": "uint256",
          "name": "fee",
          "type": "uint256"
        }
      ],
      "name": "setMarketplaceFee",
      "outputs": [],
      "stateMutability": "nonpayable",
      "type": "function"
    },
    {
      "inputs": [
        {
          "internalType": "address",
          "name": "recipient",
          "type": "address"
        }
      ],
      "name": "setMarketplaceFeeRecipient",
      "outputs": [],
      "stateMutability": "nonpayable",
      "type": "function"
    },
    {
      "inputs": [
        {
          "internalType": "address",
          "name": "nftAddress",
          "type": "address"
        },
        {
          "internalType": "address",
          "name": "receiver",
          "type": "address"
        },
        {
          "internalType": "uint256",
          "name": "tokenId",
          "type": "uint256"
        },
        {
          "internalType": "string",
          "name": "tokenUri",
          "type": "string"
        }
      ],
      "name": "mintAsset",
      "outputs": [],
      "stateMutability": "nonpayable",
      "type": "function"
    },
    {
      "inputs": [
        {
          "internalType": "address",
          "name": "nftAddress",
          "type": "address"
        },
        {
          "internalType": "uint256",
          "name": "tokenId",
          "type": "uint256"
        },
        {
          "internalType": "string",
          "name": "tokenUri",
          "type": "string"
        },
        {
          "internalType": "address",
          "name": "seller",
          "type": "address"
        },
        {
          "internalType": "uint256",
          "name": "amount",
          "type": "uint256"
        },
        {
          "internalType": "uint256",
          "name": "nonce",
          "type": "uint256"
        },
        {
          "internalType": "bool",
          "name": "isInternalAddress",
          "type": "bool"
        },
        {
          "internalType": "bytes",
          "name": "sig",
          "type": "bytes"
        }
      ],
      "name": "buyAsset",
      "outputs": [],
      "stateMutability": "payable",
      "type": "function"
    }
  ],
  "bytecode": "0x60806040523480156200001157600080fd5b5060405162001b9838038062001b98833981810160405281019062000037919062000218565b620000576200004b620000a760201b60201c565b620000af60201b60201c565b8160018190555080600260006101000a81548173ffffffffffffffffffffffffffffffffffffffff021916908373ffffffffffffffffffffffffffffffffffffffff16021790555050506200025f565b600033905090565b60008060009054906101000a900473ffffffffffffffffffffffffffffffffffffffff169050816000806101000a81548173ffffffffffffffffffffffffffffffffffffffff021916908373ffffffffffffffffffffffffffffffffffffffff1602179055508173ffffffffffffffffffffffffffffffffffffffff168173ffffffffffffffffffffffffffffffffffffffff167f8be0079c531659141344cd1fd0a4f28419497f9722a3daafe3b4186f6b6457e060405160405180910390a35050565b600080fd5b6000819050919050565b6200018d8162000178565b81146200019957600080fd5b50565b600081519050620001ad8162000182565b92915050565b600073ffffffffffffffffffffffffffffffffffffffff82169050919050565b6000620001e082620001b3565b9050919050565b620001f281620001d3565b8114620001fe57600080fd5b50565b6000815190506200021281620001e7565b92915050565b6000806040838503121562000232576200023162000173565b5b600062000242858286016200019c565b9250506020620002558582860162000201565b9150509250929050565b611929806200026f6000396000f3fe6080604052600436106100865760003560e01c80634ffa2be2116100595780634ffa2be214610124578063715018a61461014f5780638da5cb5b146101665780639407ea9814610191578063f2fde38b146101ba57610086565b80631e2ea2a31461008b57806323a581c0146100b457806326a7b37b146100d05780633ea031cc146100fb575b600080fd5b34801561009757600080fd5b506100b260048036038101906100ad9190610c62565b6101e3565b005b6100ce60048036038101906100c99190610ee4565b6102a3565b005b3480156100dc57600080fd5b506100e5610688565b6040516100f29190610fe1565b60405180910390f35b34801561010757600080fd5b50610122600480360381019061011d9190610ffc565b610692565b005b34801561013057600080fd5b50610139610707565b604051610146919061108e565b60405180910390f35b34801561015b57600080fd5b50610164610731565b005b34801561017257600080fd5b5061017b6107b9565b604051610188919061108e565b60405180910390f35b34801561019d57600080fd5b506101b860048036038101906101b391906110a9565b6107e2565b005b3480156101c657600080fd5b506101e160048036038101906101dc9190610c62565b610868565b005b6101eb61095f565b73ffffffffffffffffffffffffffffffffffffffff166102096107b9565b73ffffffffffffffffffffffffffffffffffffffff161461025f576040517f08c379a000000000000000000000000000000000000000000000000000000000815260040161025690611133565b60405180910390fd5b80600260006101000a81548173ffffffffffffffffffffffffffffffffffffffff021916908373ffffffffffffffffffffffffffffffffffffffff16021790555050565b6003600084815260200190815260200160002060009054906101000a900460ff1615610304576040517f08c379a00000000000000000000000000000000000000000000000000000000081526004016102fb9061119f565b60405180910390fd5b600061033d898987873060405160200161032295949392919061128f565b60405160208183030381529060405280519060200120610967565b90508573ffffffffffffffffffffffffffffffffffffffff166103608284610997565b73ffffffffffffffffffffffffffffffffffffffff16146103b6576040517f08c379a00000000000000000000000000000000000000000000000000000000081526004016103ad90611360565b60405180910390fd5b60016003600086815260200190815260200160002060006101000a81548160ff0219169083151502179055506000612710600154876103f591906113af565b6103ff9190611438565b905060006104168288610a0c90919063ffffffff16565b90503481111561045b576040517f08c379a0000000000000000000000000000000000000000000000000000000008152600401610452906114b5565b60405180910390fd5b60003390506104ab83600260009054906101000a900473ffffffffffffffffffffffffffffffffffffffff1673ffffffffffffffffffffffffffffffffffffffff16610a2290919063ffffffff16565b6104f683600260009054906101000a900473ffffffffffffffffffffffffffffffffffffffff1673ffffffffffffffffffffffffffffffffffffffff16610a2290919063ffffffff16565b61053161050c848a610ad390919063ffffffff16565b8a73ffffffffffffffffffffffffffffffffffffffff16610a2290919063ffffffff16565b6000610558610549858b610a0c90919063ffffffff16565b34610ad390919063ffffffff16565b9050600081111561058d5761058c818373ffffffffffffffffffffffffffffffffffffffff16610a2290919063ffffffff16565b5b8615610609578c73ffffffffffffffffffffffffffffffffffffffff1663c5d3e9998d8d8d866040518563ffffffff1660e01b81526004016105d2949392919061154c565b600060405180830381600087803b1580156105ec57600080fd5b505af1158015610600573d6000803e3d6000fd5b50505050610679565b8c73ffffffffffffffffffffffffffffffffffffffff166323b872dd8b848f6040518463ffffffff1660e01b815260040161064693929190611598565b600060405180830381600087803b15801561066057600080fd5b505af1158015610674573d6000803e3d6000fd5b505050505b50505050505050505050505050565b6000600154905090565b8373ffffffffffffffffffffffffffffffffffffffff1663d3fc98648484846040518463ffffffff1660e01b81526004016106cf939291906115cf565b600060405180830381600087803b1580156106e957600080fd5b505af11580156106fd573d6000803e3d6000fd5b5050505050505050565b6000600260009054906101000a900473ffffffffffffffffffffffffffffffffffffffff16905090565b61073961095f565b73ffffffffffffffffffffffffffffffffffffffff166107576107b9565b73ffffffffffffffffffffffffffffffffffffffff16146107ad576040517f08c379a00000000000000000000000000000000000000000000000000000000081526004016107a490611133565b60405180910390fd5b6107b76000610ae9565b565b60008060009054906101000a900473ffffffffffffffffffffffffffffffffffffffff16905090565b6107ea61095f565b73ffffffffffffffffffffffffffffffffffffffff166108086107b9565b73ffffffffffffffffffffffffffffffffffffffff161461085e576040517f08c379a000000000000000000000000000000000000000000000000000000000815260040161085590611133565b60405180910390fd5b8060018190555050565b61087061095f565b73ffffffffffffffffffffffffffffffffffffffff1661088e6107b9565b73ffffffffffffffffffffffffffffffffffffffff16146108e4576040517f08c379a00000000000000000000000000000000000000000000000000000000081526004016108db90611133565b60405180910390fd5b600073ffffffffffffffffffffffffffffffffffffffff168173ffffffffffffffffffffffffffffffffffffffff1603610953576040517f08c379a000000000000000000000000000000000000000000000000000000000815260040161094a9061167f565b60405180910390fd5b61095c81610ae9565b50565b600033905090565b60008160405160200161097a9190611721565b604051602081830303815290604052805190602001209050919050565b6000806000806109a685610bad565b809350819450829550505050600186848484604051600081526020016040526040516109d59493929190611772565b6020604051602081039080840390855afa1580156109f7573d6000803e3d6000fd5b50505060206040510351935050505092915050565b60008183610a1a91906117b7565b905092915050565b60008273ffffffffffffffffffffffffffffffffffffffff1682604051610a489061183e565b60006040518083038185875af1925050503d8060008114610a85576040519150601f19603f3d011682016040523d82523d6000602084013e610a8a565b606091505b5050905080610ace576040517f08c379a0000000000000000000000000000000000000000000000000000000008152600401610ac59061189f565b60405180910390fd5b505050565b60008183610ae191906118bf565b905092915050565b60008060009054906101000a900473ffffffffffffffffffffffffffffffffffffffff169050816000806101000a81548173ffffffffffffffffffffffffffffffffffffffff021916908373ffffffffffffffffffffffffffffffffffffffff1602179055508173ffffffffffffffffffffffffffffffffffffffff168173ffffffffffffffffffffffffffffffffffffffff167f8be0079c531659141344cd1fd0a4f28419497f9722a3daafe3b4186f6b6457e060405160405180910390a35050565b60008060006041845114610bc057600080fd5b60008060006020870151925060408701519150606087015160001a90508083839550955095505050509193909250565b6000604051905090565b600080fd5b600080fd5b600073ffffffffffffffffffffffffffffffffffffffff82169050919050565b6000610c2f82610c04565b9050919050565b610c3f81610c24565b8114610c4a57600080fd5b50565b600081359050610c5c81610c36565b92915050565b600060208284031215610c7857610c77610bfa565b5b6000610c8684828501610c4d565b91505092915050565b6000819050919050565b610ca281610c8f565b8114610cad57600080fd5b50565b600081359050610cbf81610c99565b92915050565b600080fd5b600080fd5b6000601f19601f8301169050919050565b7f4e487b7100000000000000000000000000000000000000000000000000000000600052604160045260246000fd5b610d1882610ccf565b810181811067ffffffffffffffff82111715610d3757610d36610ce0565b5b80604052505050565b6000610d4a610bf0565b9050610d568282610d0f565b919050565b600067ffffffffffffffff821115610d7657610d75610ce0565b5b610d7f82610ccf565b9050602081019050919050565b82818337600083830152505050565b6000610dae610da984610d5b565b610d40565b905082815260208101848484011115610dca57610dc9610cca565b5b610dd5848285610d8c565b509392505050565b600082601f830112610df257610df1610cc5565b5b8135610e02848260208601610d9b565b91505092915050565b60008115159050919050565b610e2081610e0b565b8114610e2b57600080fd5b50565b600081359050610e3d81610e17565b92915050565b600067ffffffffffffffff821115610e5e57610e5d610ce0565b5b610e6782610ccf565b9050602081019050919050565b6000610e87610e8284610e43565b610d40565b905082815260208101848484011115610ea357610ea2610cca565b5b610eae848285610d8c565b509392505050565b600082601f830112610ecb57610eca610cc5565b5b8135610edb848260208601610e74565b91505092915050565b600080600080600080600080610100898b031215610f0557610f04610bfa565b5b6000610f138b828c01610c4d565b9850506020610f248b828c01610cb0565b975050604089013567ffffffffffffffff811115610f4557610f44610bff565b5b610f518b828c01610ddd565b9650506060610f628b828c01610c4d565b9550506080610f738b828c01610cb0565b94505060a0610f848b828c01610cb0565b93505060c0610f958b828c01610e2e565b92505060e089013567ffffffffffffffff811115610fb657610fb5610bff565b5b610fc28b828c01610eb6565b9150509295985092959890939650565b610fdb81610c8f565b82525050565b6000602082019050610ff66000830184610fd2565b92915050565b6000806000806080858703121561101657611015610bfa565b5b600061102487828801610c4d565b945050602061103587828801610c4d565b935050604061104687828801610cb0565b925050606085013567ffffffffffffffff81111561106757611066610bff565b5b61107387828801610ddd565b91505092959194509250565b61108881610c24565b82525050565b60006020820190506110a3600083018461107f565b92915050565b6000602082840312156110bf576110be610bfa565b5b60006110cd84828501610cb0565b91505092915050565b600082825260208201905092915050565b7f4f776e61626c653a2063616c6c6572206973206e6f7420746865206f776e6572600082015250565b600061111d6020836110d6565b9150611128826110e7565b602082019050919050565b6000602082019050818103600083015261114c81611110565b9050919050565b7f4e6f6e636520697320616c726561647920757365640000000000000000000000600082015250565b60006111896015836110d6565b915061119482611153565b602082019050919050565b600060208201905081810360008301526111b88161117c565b9050919050565b60008160601b9050919050565b60006111d7826111bf565b9050919050565b60006111e9826111cc565b9050919050565b6112016111fc82610c24565b6111de565b82525050565b6000819050919050565b61122261121d82610c8f565b611207565b82525050565b6000819050919050565b600061124d61124861124384610c04565b611228565b610c04565b9050919050565b600061125f82611232565b9050919050565b600061127182611254565b9050919050565b61128961128482611266565b6111de565b82525050565b600061129b82886111f0565b6014820191506112ab8287611211565b6020820191506112bb8286611211565b6020820191506112cb8285611211565b6020820191506112db8284611278565b6014820191508190509695505050505050565b7f6164647265737320646f6573206e6f74206d617463682077697468207468652060008201527f7369676e65720000000000000000000000000000000000000000000000000000602082015250565b600061134a6026836110d6565b9150611355826112ee565b604082019050919050565b600060208201905081810360008301526113798161133d565b9050919050565b7f4e487b7100000000000000000000000000000000000000000000000000000000600052601160045260246000fd5b60006113ba82610c8f565b91506113c583610c8f565b9250817fffffffffffffffffffffffffffffffffffffffffffffffffffffffffffffffff04831182151516156113fe576113fd611380565b5b828202905092915050565b7f4e487b7100000000000000000000000000000000000000000000000000000000600052601260045260246000fd5b600061144382610c8f565b915061144e83610c8f565b92508261145e5761145d611409565b5b828204905092915050565b7f496e73756666696369656e7420416d6f756e7420737570706c69656400000000600082015250565b600061149f601c836110d6565b91506114aa82611469565b602082019050919050565b600060208201905081810360008301526114ce81611492565b9050919050565b600081519050919050565b60005b838110156114fe5780820151818401526020810190506114e3565b8381111561150d576000848401525b50505050565b600061151e826114d5565b61152881856110d6565b93506115388185602086016114e0565b61154181610ccf565b840191505092915050565b60006080820190506115616000830187610fd2565b81810360208301526115738186611513565b9050611582604083018561107f565b61158f606083018461107f565b95945050505050565b60006060820190506115ad600083018661107f565b6115ba602083018561107f565b6115c76040830184610fd2565b949350505050565b60006060820190506115e4600083018661107f565b6115f16020830185610fd2565b81810360408301526116038184611513565b9050949350505050565b7f4f776e61626c653a206e6577206f776e657220697320746865207a65726f206160008201527f6464726573730000000000000000000000000000000000000000000000000000602082015250565b60006116696026836110d6565b91506116748261160d565b604082019050919050565b600060208201905081810360008301526116988161165c565b9050919050565b600081905092915050565b7f19457468657265756d205369676e6564204d6573736167653a0a333200000000600082015250565b60006116e0601c8361169f565b91506116eb826116aa565b601c82019050919050565b6000819050919050565b6000819050919050565b61171b611716826116f6565b611700565b82525050565b600061172c826116d3565b9150611738828461170a565b60208201915081905092915050565b611750816116f6565b82525050565b600060ff82169050919050565b61176c81611756565b82525050565b60006080820190506117876000830187611747565b6117946020830186611763565b6117a16040830185611747565b6117ae6060830184611747565b95945050505050565b60006117c282610c8f565b91506117cd83610c8f565b9250827fffffffffffffffffffffffffffffffffffffffffffffffffffffffffffffffff0382111561180257611801611380565b5b828201905092915050565b600081905092915050565b50565b600061182860008361180d565b915061183382611818565b600082019050919050565b60006118498261181b565b9150819050919050565b7f7472616e73666572206661696c65640000000000000000000000000000000000600082015250565b6000611889600f836110d6565b915061189482611853565b602082019050919050565b600060208201905081810360008301526118b88161187c565b9050919050565b60006118ca82610c8f565b91506118d583610c8f565b9250828210156118e8576118e7611380565b5b82820390509291505056fea264697066735822122093f564cc78f5c66238e2ced1a97eb1ea23106ba359b8278c16370512a95bb29c64736f6c634300080d0033",
  "immutableReferences": {},
  "source": "// SPDX-License-Identifier: MIT\n\npragma solidity ^0.8.1;\n\nimport \"@openzeppelin/contracts/token/ERC721/IERC721.sol\";\nimport \"@openzeppelin/contracts/utils/math/SafeMath.sol\";\nimport \"@openzeppelin/contracts/access/Ownable.sol\";\nimport \"./IERC721Lazy.sol\";\nimport \"./lib/LibTransfer.sol\";\n\ncontract MarketplaceSecure is Ownable{\n\n    using SafeMath for uint256;\n    using LibTransfer for address;\n    uint256 private _marketplaceFee;\n    address private _marketplaceFeeRecipient;\n    mapping(uint256 => bool) usedNonces;\n\n    constructor(uint256 fee, address feeRecipient) {\n        _marketplaceFee = fee;\n        _marketplaceFeeRecipient = feeRecipient;\n    }\n\n    // Signature methods\n\n    function splitSignature(bytes memory sig)\n        internal\n        pure\n        returns (uint8, bytes32, bytes32)\n    {\n        require(sig.length == 65);\n\n        bytes32 r;\n        bytes32 s;\n        uint8 v;\n\n        assembly {\n            // first 32 bytes, after the length prefix\n            r := mload(add(sig, 32))\n            // second 32 bytes\n            s := mload(add(sig, 64))\n            // final byte (first byte of the next 32 bytes)\n            v := byte(0, mload(add(sig, 96)))\n        }\n\n        return (v, r, s);\n    }\n\n    function recoverSigner(bytes32 message, bytes memory sig)\n        internal\n        pure\n        returns (address)\n    {\n        uint8 v;\n        bytes32 r;\n        bytes32 s;\n\n        (v, r, s) = splitSignature(sig);\n\n        return ecrecover(message, v, r, s);\n    }\n\n    // Builds a prefixed hash to mimic the behavior of eth_sign.\n    function prefixed(bytes32 hash) internal pure returns (bytes32) {\n        return keccak256(abi.encodePacked(\"\\x19Ethereum Signed Message:\\n32\", hash));\n    }\n\n    function getMarketplaceFee() public view virtual returns (uint256) {\n        return _marketplaceFee;\n    }\n\n    function getMarketplaceFeeRecipient()\n    public\n    view\n    virtual\n    returns (address)\n    {\n        return _marketplaceFeeRecipient;\n    }\n\n    function setMarketplaceFee(uint256 fee) public virtual onlyOwner {\n        _marketplaceFee = fee;\n    }\n\n    function setMarketplaceFeeRecipient(address recipient)\n    public\n    virtual\n    onlyOwner\n    {\n        _marketplaceFeeRecipient = recipient;\n    }\n\n    function mintAsset(address nftAddress, address receiver, uint256 tokenId, string memory tokenUri) public {\n        IERC721LazyMint(nftAddress).mint(receiver, tokenId, tokenUri);\n    }\n\n    function buyAsset(address nftAddress, uint256 tokenId, string memory tokenUri, address seller, uint256 amount, uint256 nonce, bool isInternalAddress, bytes memory sig) external payable{\n        \n        require(!usedNonces[nonce], \"Nonce is already used\");\n\n        bytes32 message = prefixed(keccak256(abi.encodePacked(nftAddress, tokenId, amount, nonce, this)));\n\n        require(recoverSigner(message, sig) == seller, \"address does not match with the signer\");\n\n        usedNonces[nonce] = true;\n\n        uint256 fee = (amount * _marketplaceFee) / 10000;\n        uint256 totalAmount = amount.add(fee);\n        require(totalAmount<=msg.value, \"Insufficient Amount supplied\");\n\n        address buyer = msg.sender;\n            \n        // payable to platform from buyer\n        address(_marketplaceFeeRecipient).transferEth(fee);\n\n        // payable to platform from seller\n        address(_marketplaceFeeRecipient).transferEth(fee);\n\n        // payable to seller\n        address(seller).transferEth(amount.sub(fee));\n\n        // rest amount paid back to sender\n        uint256 rest = msg.value.sub(amount.add(fee));\n\n        if(rest>0){\n            address(buyer).transferEth(rest);\n        }\n\n        if(isInternalAddress){\n            // transfer and mint\n            IERC721LazyMint(nftAddress).transferFromOrMint(tokenId, tokenUri, seller, buyer);\n        } else {\n            IERC721(nftAddress).transferFrom(seller, buyer, tokenId);\n        }\n    }\n\n}",
  "sourcePath": "/home/mohan/NFTTRONE/nft_marketplace_backend/smart_contracts/marketplace/contracts/MarketplaceSecure.sol",
  "compiler": {
    "name": "solc",
    "version": "0.8.13+commit.abaa5c0e.Emscripten.clang"
  },
  "schemaVersion": "3.4.9",
  "updatedAt": "2022-12-02T09:22:23.030Z",
  "devdoc": {
    "kind": "dev",
    "methods": {
      "owner()": {
        "details": "Returns the address of the current owner."
      },
      "renounceOwnership()": {
        "details": "Leaves the contract without owner. It will not be possible to call `onlyOwner` functions anymore. Can only be called by the current owner. NOTE: Renouncing ownership will leave the contract without an owner, thereby removing any functionality that is only available to the owner."
      },
      "transferOwnership(address)": {
        "details": "Transfers ownership of the contract to a new account (`newOwner`). Can only be called by the current owner."
      }
    },
    "version": 1
  },
  "userdoc": {
    "kind": "user",
    "methods": {},
    "version": 1
  }
}