{
  "contractName": "MarketplaceRoyalty",
  "abi": [
    {
      "anonymous": false,
      "inputs": [
        {
          "indexed": true,
          "internalType": "address",
          "name": "previousOwner",
          "type": "address"
        },
        {
          "indexed": true,
          "internalType": "address",
          "name": "newOwner",
          "type": "address"
        }
      ],
      "name": "OwnershipTransferred",
      "type": "event"
    },
    {
      "inputs": [],
      "name": "owner",
      "outputs": [
        {
          "internalType": "address",
          "name": "",
          "type": "address"
        }
      ],
      "stateMutability": "view",
      "type": "function"
    },
    {
      "inputs": [],
      "name": "renounceOwnership",
      "outputs": [],
      "stateMutability": "nonpayable",
      "type": "function"
    },
    {
      "inputs": [
        {
          "internalType": "address",
          "name": "newOwner",
          "type": "address"
        }
      ],
      "name": "transferOwnership",
      "outputs": [],
      "stateMutability": "nonpayable",
      "type": "function"
    },
    {
      "inputs": [
        {
          "internalType": "address",
          "name": "nftAddress",
          "type": "address"
        },
        {
          "internalType": "address",
          "name": "receiver",
          "type": "address"
        },
        {
          "internalType": "uint256",
          "name": "tokenId",
          "type": "uint256"
        },
        {
          "internalType": "string",
          "name": "tokenUri",
          "type": "string"
        }
      ],
      "name": "mintAsset",
      "outputs": [],
      "stateMutability": "nonpayable",
      "type": "function"
    },
    {
      "inputs": [
        {
          "internalType": "address",
          "name": "nftAddress",
          "type": "address"
        },
        {
          "internalType": "uint256",
          "name": "tokenId",
          "type": "uint256"
        },
        {
          "internalType": "string",
          "name": "tokenUri",
          "type": "string"
        },
        {
          "internalType": "address",
          "name": "seller",
          "type": "address"
        },
        {
          "internalType": "uint256",
          "name": "amount",
          "type": "uint256"
        },
        {
          "internalType": "uint256",
          "name": "nonce",
          "type": "uint256"
        },
        {
          "internalType": "bool",
          "name": "mintOrTransferCall",
          "type": "bool"
        },
        {
          "internalType": "bytes",
          "name": "sig",
          "type": "bytes"
        },
        {
          "components": [
            {
              "internalType": "address payable",
              "name": "account",
              "type": "address"
            },
            {
              "internalType": "uint256",
              "name": "value",
              "type": "uint256"
            }
          ],
          "internalType": "struct MarketplaceRoyalty.AccountShare[]",
          "name": "accountShares",
          "type": "tuple[]"
        }
      ],
      "name": "buyAsset",
      "outputs": [],
      "stateMutability": "payable",
      "type": "function"
    }
  ],
  "bytecode": "0x608060405234801561001057600080fd5b5061002d61002261003260201b60201c565b61003a60201b60201c565b6100fe565b600033905090565b60008060009054906101000a900473ffffffffffffffffffffffffffffffffffffffff169050816000806101000a81548173ffffffffffffffffffffffffffffffffffffffff021916908373ffffffffffffffffffffffffffffffffffffffff1602179055508173ffffffffffffffffffffffffffffffffffffffff168173ffffffffffffffffffffffffffffffffffffffff167f8be0079c531659141344cd1fd0a4f28419497f9722a3daafe3b4186f6b6457e060405160405180910390a35050565b611c298061010d6000396000f3fe60806040526004361061004a5760003560e01c80633ea031cc1461004f5780634d2c787814610078578063715018a6146100945780638da5cb5b146100ab578063f2fde38b146100d6575b600080fd5b34801561005b57600080fd5b5061007660048036038101906100719190610d70565b6100ff565b005b610092600480360381019061008d9190611027565b610174565b005b3480156100a057600080fd5b506100a9610615565b005b3480156100b757600080fd5b506100c061069d565b6040516100cd9190611154565b60405180910390f35b3480156100e257600080fd5b506100fd60048036038101906100f8919061116f565b6106c6565b005b8373ffffffffffffffffffffffffffffffffffffffff1663d3fc98648484846040518463ffffffff1660e01b815260040161013c93929190611233565b600060405180830381600087803b15801561015657600080fd5b505af115801561016a573d6000803e3d6000fd5b5050505050505050565b6001600085815260200190815260200160002060009054906101000a900460ff16156101d5576040517f08c379a00000000000000000000000000000000000000000000000000000000081526004016101cc906112bd565b60405180910390fd5b600061020e8a8a8888306040516020016101f39594939291906113ad565b604051602081830303815290604052805190602001206107bd565b90508673ffffffffffffffffffffffffffffffffffffffff1661023182856107ed565b73ffffffffffffffffffffffffffffffffffffffff1614610287576040517f08c379a000000000000000000000000000000000000000000000000000000000815260040161027e9061147e565b60405180910390fd5b600180600087815260200190815260200160002060006101000a81548160ff021916908315150217905550600086905060005b83518110156103f057600073ffffffffffffffffffffffffffffffffffffffff168482815181106102ee576102ed61149e565b5b60200260200101516000015173ffffffffffffffffffffffffffffffffffffffff1603610350576040517f08c379a00000000000000000000000000000000000000000000000000000000081526004016103479061153f565b60405180910390fd5b60008482815181106103655761036461149e565b5b602002602001015160200151116103b1576040517f08c379a00000000000000000000000000000000000000000000000000000000081526004016103a8906115ab565b60405180910390fd5b8381815181106103c4576103c361149e565b5b602002602001015160200151826103db91906115fa565b915080806103e890611650565b9150506102ba565b503481146103fd82610862565b61040634610862565b604051602001610417929190611792565b60405160208183030381529060405290610467576040517f08c379a000000000000000000000000000000000000000000000000000000000815260040161045e91906117cc565b60405180910390fd5b50600033905085156104e9578b73ffffffffffffffffffffffffffffffffffffffff1663c5d3e9998c8c8c856040518563ffffffff1660e01b81526004016104b294939291906117ee565b600060405180830381600087803b1580156104cc57600080fd5b505af11580156104e0573d6000803e3d6000fd5b50505050610559565b8b73ffffffffffffffffffffffffffffffffffffffff166323b872dd8a838e6040518463ffffffff1660e01b81526004016105269392919061183a565b600060405180830381600087803b15801561054057600080fd5b505af1158015610554573d6000803e3d6000fd5b505050505b610582888a73ffffffffffffffffffffffffffffffffffffffff166109c290919063ffffffff16565b60005b8451811015610606576105f38582815181106105a4576105a361149e565b5b6020026020010151602001518683815181106105c3576105c261149e565b5b60200260200101516000015173ffffffffffffffffffffffffffffffffffffffff166109c290919063ffffffff16565b80806105fe90611650565b915050610585565b50505050505050505050505050565b61061d610a73565b73ffffffffffffffffffffffffffffffffffffffff1661063b61069d565b73ffffffffffffffffffffffffffffffffffffffff1614610691576040517f08c379a0000000000000000000000000000000000000000000000000000000008152600401610688906118bd565b60405180910390fd5b61069b6000610a7b565b565b60008060009054906101000a900473ffffffffffffffffffffffffffffffffffffffff16905090565b6106ce610a73565b73ffffffffffffffffffffffffffffffffffffffff166106ec61069d565b73ffffffffffffffffffffffffffffffffffffffff1614610742576040517f08c379a0000000000000000000000000000000000000000000000000000000008152600401610739906118bd565b60405180910390fd5b600073ffffffffffffffffffffffffffffffffffffffff168173ffffffffffffffffffffffffffffffffffffffff16036107b1576040517f08c379a00000000000000000000000000000000000000000000000000000000081526004016107a89061194f565b60405180910390fd5b6107ba81610a7b565b50565b6000816040516020016107d091906119e6565b604051602081830303815290604052805190602001209050919050565b6000806000806107fc85610b3f565b8093508194508295505050506001868484846040516000815260200160405260405161082b9493929190611a37565b6020604051602081039080840390855afa15801561084d573d6000803e3d6000fd5b50505060206040510351935050505092915050565b6060600082036108a9576040518060400160405280600181526020017f300000000000000000000000000000000000000000000000000000000000000081525090506109bd565b600082905060005b600082146108db5780806108c490611650565b915050600a826108d49190611aab565b91506108b1565b60008167ffffffffffffffff8111156108f7576108f6610c45565b5b6040519080825280601f01601f1916602001820160405280156109295781602001600182028036833780820191505090505b5090505b600085146109b6576001826109429190611adc565b9150600a856109519190611b10565b603061095d91906115fa565b60f81b8183815181106109735761097261149e565b5b60200101907effffffffffffffffffffffffffffffffffffffffffffffffffffffffffffff1916908160001a905350600a856109af9190611aab565b945061092d565b8093505050505b919050565b60008273ffffffffffffffffffffffffffffffffffffffff16826040516109e890611b72565b60006040518083038185875af1925050503d8060008114610a25576040519150601f19603f3d011682016040523d82523d6000602084013e610a2a565b606091505b5050905080610a6e576040517f08c379a0000000000000000000000000000000000000000000000000000000008152600401610a6590611bd3565b60405180910390fd5b505050565b600033905090565b60008060009054906101000a900473ffffffffffffffffffffffffffffffffffffffff169050816000806101000a81548173ffffffffffffffffffffffffffffffffffffffff021916908373ffffffffffffffffffffffffffffffffffffffff1602179055508173ffffffffffffffffffffffffffffffffffffffff168173ffffffffffffffffffffffffffffffffffffffff167f8be0079c531659141344cd1fd0a4f28419497f9722a3daafe3b4186f6b6457e060405160405180910390a35050565b60008060006041845114610b5257600080fd5b60008060006020870151925060408701519150606087015160001a90508083839550955095505050509193909250565b6000604051905090565b600080fd5b600080fd5b600073ffffffffffffffffffffffffffffffffffffffff82169050919050565b6000610bc182610b96565b9050919050565b610bd181610bb6565b8114610bdc57600080fd5b50565b600081359050610bee81610bc8565b92915050565b6000819050919050565b610c0781610bf4565b8114610c1257600080fd5b50565b600081359050610c2481610bfe565b92915050565b600080fd5b600080fd5b6000601f19601f8301169050919050565b7f4e487b7100000000000000000000000000000000000000000000000000000000600052604160045260246000fd5b610c7d82610c34565b810181811067ffffffffffffffff82111715610c9c57610c9b610c45565b5b80604052505050565b6000610caf610b82565b9050610cbb8282610c74565b919050565b600067ffffffffffffffff821115610cdb57610cda610c45565b5b610ce482610c34565b9050602081019050919050565b82818337600083830152505050565b6000610d13610d0e84610cc0565b610ca5565b905082815260208101848484011115610d2f57610d2e610c2f565b5b610d3a848285610cf1565b509392505050565b600082601f830112610d5757610d56610c2a565b5b8135610d67848260208601610d00565b91505092915050565b60008060008060808587031215610d8a57610d89610b8c565b5b6000610d9887828801610bdf565b9450506020610da987828801610bdf565b9350506040610dba87828801610c15565b925050606085013567ffffffffffffffff811115610ddb57610dda610b91565b5b610de787828801610d42565b91505092959194509250565b60008115159050919050565b610e0881610df3565b8114610e1357600080fd5b50565b600081359050610e2581610dff565b92915050565b600067ffffffffffffffff821115610e4657610e45610c45565b5b610e4f82610c34565b9050602081019050919050565b6000610e6f610e6a84610e2b565b610ca5565b905082815260208101848484011115610e8b57610e8a610c2f565b5b610e96848285610cf1565b509392505050565b600082601f830112610eb357610eb2610c2a565b5b8135610ec3848260208601610e5c565b91505092915050565b600067ffffffffffffffff821115610ee757610ee6610c45565b5b602082029050602081019050919050565b600080fd5b600080fd5b6000610f0d82610b96565b9050919050565b610f1d81610f02565b8114610f2857600080fd5b50565b600081359050610f3a81610f14565b92915050565b600060408284031215610f5657610f55610efd565b5b610f606040610ca5565b90506000610f7084828501610f2b565b6000830152506020610f8484828501610c15565b60208301525092915050565b6000610fa3610f9e84610ecc565b610ca5565b90508083825260208201905060408402830185811115610fc657610fc5610ef8565b5b835b81811015610fef5780610fdb8882610f40565b845260208401935050604081019050610fc8565b5050509392505050565b600082601f83011261100e5761100d610c2a565b5b813561101e848260208601610f90565b91505092915050565b60008060008060008060008060006101208a8c03121561104a57611049610b8c565b5b60006110588c828d01610bdf565b99505060206110698c828d01610c15565b98505060408a013567ffffffffffffffff81111561108a57611089610b91565b5b6110968c828d01610d42565b97505060606110a78c828d01610bdf565b96505060806110b88c828d01610c15565b95505060a06110c98c828d01610c15565b94505060c06110da8c828d01610e16565b93505060e08a013567ffffffffffffffff8111156110fb576110fa610b91565b5b6111078c828d01610e9e565b9250506101008a013567ffffffffffffffff81111561112957611128610b91565b5b6111358c828d01610ff9565b9150509295985092959850929598565b61114e81610bb6565b82525050565b60006020820190506111696000830184611145565b92915050565b60006020828403121561118557611184610b8c565b5b600061119384828501610bdf565b91505092915050565b6111a581610bf4565b82525050565b600081519050919050565b600082825260208201905092915050565b60005b838110156111e55780820151818401526020810190506111ca565b838111156111f4576000848401525b50505050565b6000611205826111ab565b61120f81856111b6565b935061121f8185602086016111c7565b61122881610c34565b840191505092915050565b60006060820190506112486000830186611145565b611255602083018561119c565b818103604083015261126781846111fa565b9050949350505050565b7f4e6f6e636520697320616c726561647920757365640000000000000000000000600082015250565b60006112a76015836111b6565b91506112b282611271565b602082019050919050565b600060208201905081810360008301526112d68161129a565b9050919050565b60008160601b9050919050565b60006112f5826112dd565b9050919050565b6000611307826112ea565b9050919050565b61131f61131a82610bb6565b6112fc565b82525050565b6000819050919050565b61134061133b82610bf4565b611325565b82525050565b6000819050919050565b600061136b61136661136184610b96565b611346565b610b96565b9050919050565b600061137d82611350565b9050919050565b600061138f82611372565b9050919050565b6113a76113a282611384565b6112fc565b82525050565b60006113b9828861130e565b6014820191506113c9828761132f565b6020820191506113d9828661132f565b6020820191506113e9828561132f565b6020820191506113f98284611396565b6014820191508190509695505050505050565b7f6164647265737320646f6573206e6f74206d617463682077697468207468652060008201527f7369676e65720000000000000000000000000000000000000000000000000000602082015250565b60006114686026836111b6565b91506114738261140c565b604082019050919050565b600060208201905081810360008301526114978161145b565b9050919050565b7f4e487b7100000000000000000000000000000000000000000000000000000000600052603260045260246000fd5b7f526563697069656e742073686f756c64206e6f74206265207a65726f2061646460008201527f7265737300000000000000000000000000000000000000000000000000000000602082015250565b60006115296024836111b6565b9150611534826114cd565b604082019050919050565b600060208201905081810360008301526115588161151c565b9050919050565b7f53686172652076616c75652073686f756c6420626520706f7369746976650000600082015250565b6000611595601e836111b6565b91506115a08261155f565b602082019050919050565b600060208201905081810360008301526115c481611588565b9050919050565b7f4e487b7100000000000000000000000000000000000000000000000000000000600052601160045260246000fd5b600061160582610bf4565b915061161083610bf4565b9250827fffffffffffffffffffffffffffffffffffffffffffffffffffffffffffffffff03821115611645576116446115cb565b5b828201905092915050565b600061165b82610bf4565b91507fffffffffffffffffffffffffffffffffffffffffffffffffffffffffffffffff820361168d5761168c6115cb565b5b600182019050919050565b600081905092915050565b7f496e76616c696420616d6f756e7420737570706c6965642e205265717569726560008201527f643a200000000000000000000000000000000000000000000000000000000000602082015250565b60006116ff602383611698565b915061170a826116a3565b602382019050919050565b6000611720826111ab565b61172a8185611698565b935061173a8185602086016111c7565b80840191505092915050565b7f20537570706c6965643a20000000000000000000000000000000000000000000600082015250565b600061177c600b83611698565b915061178782611746565b600b82019050919050565b600061179d826116f2565b91506117a98285611715565b91506117b48261176f565b91506117c08284611715565b91508190509392505050565b600060208201905081810360008301526117e681846111fa565b905092915050565b6000608082019050611803600083018761119c565b818103602083015261181581866111fa565b90506118246040830185611145565b6118316060830184611145565b95945050505050565b600060608201905061184f6000830186611145565b61185c6020830185611145565b611869604083018461119c565b949350505050565b7f4f776e61626c653a2063616c6c6572206973206e6f7420746865206f776e6572600082015250565b60006118a76020836111b6565b91506118b282611871565b602082019050919050565b600060208201905081810360008301526118d68161189a565b9050919050565b7f4f776e61626c653a206e6577206f776e657220697320746865207a65726f206160008201527f6464726573730000000000000000000000000000000000000000000000000000602082015250565b60006119396026836111b6565b9150611944826118dd565b604082019050919050565b600060208201905081810360008301526119688161192c565b9050919050565b7f19457468657265756d205369676e6564204d6573736167653a0a333200000000600082015250565b60006119a5601c83611698565b91506119b08261196f565b601c82019050919050565b6000819050919050565b6000819050919050565b6119e06119db826119bb565b6119c5565b82525050565b60006119f182611998565b91506119fd82846119cf565b60208201915081905092915050565b611a15816119bb565b82525050565b600060ff82169050919050565b611a3181611a1b565b82525050565b6000608082019050611a4c6000830187611a0c565b611a596020830186611a28565b611a666040830185611a0c565b611a736060830184611a0c565b95945050505050565b7f4e487b7100000000000000000000000000000000000000000000000000000000600052601260045260246000fd5b6000611ab682610bf4565b9150611ac183610bf4565b925082611ad157611ad0611a7c565b5b828204905092915050565b6000611ae782610bf4565b9150611af283610bf4565b925082821015611b0557611b046115cb565b5b828203905092915050565b6000611b1b82610bf4565b9150611b2683610bf4565b925082611b3657611b35611a7c565b5b828206905092915050565b600081905092915050565b50565b6000611b5c600083611b41565b9150611b6782611b4c565b600082019050919050565b6000611b7d82611b4f565b9150819050919050565b7f7472616e73666572206661696c65640000000000000000000000000000000000600082015250565b6000611bbd600f836111b6565b9150611bc882611b87565b602082019050919050565b60006020820190508181036000830152611bec81611bb0565b905091905056fea2646970667358221220b08a3c1299288078c3e932eceb116a331d647b2d44488b8c18a6a653c91e133b64736f6c634300080d0033",
  "immutableReferences": {},
  "source": "// SPDX-License-Identifier: MIT\n\npragma solidity ^0.8.1;\n\nimport \"@openzeppelin/contracts/token/ERC721/IERC721.sol\";\nimport \"@openzeppelin/contracts/utils/math/SafeMath.sol\";\nimport \"@openzeppelin/contracts/utils/Strings.sol\";\nimport \"@openzeppelin/contracts/access/Ownable.sol\";\nimport \"./IERC721Lazy.sol\";\nimport \"./lib/LibTransfer.sol\";\n\ncontract MarketplaceRoyalty is Ownable{\n\n    using SafeMath for uint256;\n    using LibTransfer for address;\n\n    struct AccountShare {\n        address payable account;\n        uint256 value;\n    }\n\n    mapping(uint256 => bool) usedNonces;\n\n    // Signature methods\n\n    function splitSignature(bytes memory sig)\n        internal\n        pure\n        returns (uint8, bytes32, bytes32)\n    {\n        require(sig.length == 65);\n\n        bytes32 r;\n        bytes32 s;\n        uint8 v;\n\n        assembly {\n            // first 32 bytes, after the length prefix\n            r := mload(add(sig, 32))\n            // second 32 bytes\n            s := mload(add(sig, 64))\n            // final byte (first byte of the next 32 bytes)\n            v := byte(0, mload(add(sig, 96)))\n        }\n\n        return (v, r, s);\n    }\n\n    function recoverSigner(bytes32 message, bytes memory sig)\n        internal\n        pure\n        returns (address)\n    {\n        uint8 v;\n        bytes32 r;\n        bytes32 s;\n\n        (v, r, s) = splitSignature(sig);\n\n        return ecrecover(message, v, r, s);\n    }\n\n    // Builds a prefixed hash to mimic the behavior of eth_sign.\n    function prefixed(bytes32 hash) internal pure returns (bytes32) {\n        return keccak256(abi.encodePacked(\"\\x19Ethereum Signed Message:\\n32\", hash));\n    }\n\n    function mintAsset(address nftAddress, address receiver, uint256 tokenId, string memory tokenUri) public {\n        IERC721LazyMint(nftAddress).mint(receiver, tokenId, tokenUri);\n    }\n\n    function buyAsset(address nftAddress, uint256 tokenId, string memory tokenUri, address seller, uint256 amount, uint256 nonce, bool mintOrTransferCall, bytes memory sig, AccountShare[] memory accountShares) external payable{\n        \n        require(!usedNonces[nonce], \"Nonce is already used\");\n\n        bytes32 message = prefixed(keccak256(abi.encodePacked(nftAddress, tokenId, amount, nonce, this)));\n\n        require(recoverSigner(message, sig) == seller, \"address does not match with the signer\");\n\n        usedNonces[nonce] = true;\n\n        uint256 totalValue = amount;\n\n        for (uint i=0; i< accountShares.length; i++){\n            require(accountShares[i].account != address(0x0), \"Recipient should not be zero address\");\n            require(accountShares[i].value > 0, \"Share value should be positive\");\n            totalValue += accountShares[i].value;\n        }\n\n        // verify if sufficient amount is passed\n        require(totalValue == msg.value, string(abi.encodePacked(\"Invalid amount supplied. Required: \", Strings.toString(totalValue),\" Supplied: \", Strings.toString(msg.value))));\n\n        address buyer = msg.sender;\n\n        if(mintOrTransferCall){\n            // transfer and mint\n            IERC721LazyMint(nftAddress).transferFromOrMint(tokenId, tokenUri, seller, buyer);\n        } else {\n            IERC721(nftAddress).transferFrom(seller, buyer, tokenId);\n        }\n\n        // payable to seller\n        address(seller).transferEth(amount);\n\n        // marketplace fees and royalties\n        for (uint i=0; i< accountShares.length; i++){\n            address(accountShares[i].account).transferEth(accountShares[i].value);\n        }\n    }\n\n}",
  "sourcePath": "/home/mohan/NFTTRONE/nft_marketplace_backend/smart_contracts/marketplace/contracts/MarketplaceRoyalty.sol",
  "compiler": {
    "name": "solc",
    "version": "0.8.13+commit.abaa5c0e.Emscripten.clang"
  },
  "schemaVersion": "3.4.9",
  "updatedAt": "2022-12-02T09:22:23.022Z",
  "devdoc": {
    "kind": "dev",
    "methods": {
      "owner()": {
        "details": "Returns the address of the current owner."
      },
      "renounceOwnership()": {
        "details": "Leaves the contract without owner. It will not be possible to call `onlyOwner` functions anymore. Can only be called by the current owner. NOTE: Renouncing ownership will leave the contract without an owner, thereby removing any functionality that is only available to the owner."
      },
      "transferOwnership(address)": {
        "details": "Transfers ownership of the contract to a new account (`newOwner`). Can only be called by the current owner."
      }
    },
    "version": 1
  },
  "userdoc": {
    "kind": "user",
    "methods": {},
    "version": 1
  }
}