{
  "contractName": "ERC721Lazy",
  "abi": [
    {
      "inputs": [
        {
          "internalType": "string",
          "name": "name",
          "type": "string"
        },
        {
          "internalType": "string",
          "name": "symbol",
          "type": "string"
        }
      ],
      "stateMutability": "nonpayable",
      "type": "constructor"
    },
    {
      "anonymous": false,
      "inputs": [
        {
          "indexed": true,
          "internalType": "address",
          "name": "owner",
          "type": "address"
        },
        {
          "indexed": true,
          "internalType": "address",
          "name": "approved",
          "type": "address"
        },
        {
          "indexed": true,
          "internalType": "uint256",
          "name": "tokenId",
          "type": "uint256"
        }
      ],
      "name": "Approval",
      "type": "event"
    },
    {
      "anonymous": false,
      "inputs": [
        {
          "indexed": true,
          "internalType": "address",
          "name": "owner",
          "type": "address"
        },
        {
          "indexed": true,
          "internalType": "address",
          "name": "operator",
          "type": "address"
        },
        {
          "indexed": false,
          "internalType": "bool",
          "name": "approved",
          "type": "bool"
        }
      ],
      "name": "ApprovalForAll",
      "type": "event"
    },
    {
      "anonymous": false,
      "inputs": [
        {
          "indexed": true,
          "internalType": "address",
          "name": "operator",
          "type": "address"
        },
        {
          "indexed": false,
          "internalType": "bool",
          "name": "hasApproval",
          "type": "bool"
        }
      ],
      "name": "DefaultApproval",
      "type": "event"
    },
    {
      "anonymous": false,
      "inputs": [
        {
          "indexed": true,
          "internalType": "address",
          "name": "previousOwner",
          "type": "address"
        },
        {
          "indexed": true,
          "internalType": "address",
          "name": "newOwner",
          "type": "address"
        }
      ],
      "name": "OwnershipTransferred",
      "type": "event"
    },
    {
      "anonymous": false,
      "inputs": [
        {
          "indexed": true,
          "internalType": "address",
          "name": "from",
          "type": "address"
        },
        {
          "indexed": true,
          "internalType": "address",
          "name": "to",
          "type": "address"
        },
        {
          "indexed": true,
          "internalType": "uint256",
          "name": "tokenId",
          "type": "uint256"
        }
      ],
      "name": "Transfer",
      "type": "event"
    },
    {
      "inputs": [
        {
          "internalType": "address",
          "name": "to",
          "type": "address"
        },
        {
          "internalType": "uint256",
          "name": "tokenId",
          "type": "uint256"
        }
      ],
      "name": "approve",
      "outputs": [],
      "stateMutability": "nonpayable",
      "type": "function"
    },
    {
      "inputs": [
        {
          "internalType": "address",
          "name": "owner",
          "type": "address"
        }
      ],
      "name": "balanceOf",
      "outputs": [
        {
          "internalType": "uint256",
          "name": "",
          "type": "uint256"
        }
      ],
      "stateMutability": "view",
      "type": "function",
      "constant": true
    },
    {
      "inputs": [
        {
          "internalType": "uint256",
          "name": "tokenId",
          "type": "uint256"
        }
      ],
      "name": "getApproved",
      "outputs": [
        {
          "internalType": "address",
          "name": "",
          "type": "address"
        }
      ],
      "stateMutability": "view",
      "type": "function",
      "constant": true
    },
    {
      "inputs": [],
      "name": "name",
      "outputs": [
        {
          "internalType": "string",
          "name": "",
          "type": "string"
        }
      ],
      "stateMutability": "view",
      "type": "function",
      "constant": true
    },
    {
      "inputs": [],
      "name": "owner",
      "outputs": [
        {
          "internalType": "address",
          "name": "",
          "type": "address"
        }
      ],
      "stateMutability": "view",
      "type": "function",
      "constant": true
    },
    {
      "inputs": [
        {
          "internalType": "uint256",
          "name": "tokenId",
          "type": "uint256"
        }
      ],
      "name": "ownerOf",
      "outputs": [
        {
          "internalType": "address",
          "name": "",
          "type": "address"
        }
      ],
      "stateMutability": "view",
      "type": "function",
      "constant": true
    },
    {
      "inputs": [],
      "name": "renounceOwnership",
      "outputs": [],
      "stateMutability": "nonpayable",
      "type": "function"
    },
    {
      "inputs": [
        {
          "internalType": "address",
          "name": "from",
          "type": "address"
        },
        {
          "internalType": "address",
          "name": "to",
          "type": "address"
        },
        {
          "internalType": "uint256",
          "name": "tokenId",
          "type": "uint256"
        }
      ],
      "name": "safeTransferFrom",
      "outputs": [],
      "stateMutability": "nonpayable",
      "type": "function"
    },
    {
      "inputs": [
        {
          "internalType": "address",
          "name": "from",
          "type": "address"
        },
        {
          "internalType": "address",
          "name": "to",
          "type": "address"
        },
        {
          "internalType": "uint256",
          "name": "tokenId",
          "type": "uint256"
        },
        {
          "internalType": "bytes",
          "name": "_data",
          "type": "bytes"
        }
      ],
      "name": "safeTransferFrom",
      "outputs": [],
      "stateMutability": "nonpayable",
      "type": "function"
    },
    {
      "inputs": [
        {
          "internalType": "address",
          "name": "operator",
          "type": "address"
        },
        {
          "internalType": "bool",
          "name": "approved",
          "type": "bool"
        }
      ],
      "name": "setApprovalForAll",
      "outputs": [],
      "stateMutability": "nonpayable",
      "type": "function"
    },
    {
      "inputs": [
        {
          "internalType": "address",
          "name": "operator",
          "type": "address"
        },
        {
          "internalType": "bool",
          "name": "hasApproval",
          "type": "bool"
        }
      ],
      "name": "setDefaultApproval",
      "outputs": [],
      "stateMutability": "nonpayable",
      "type": "function"
    },
    {
      "inputs": [],
      "name": "symbol",
      "outputs": [
        {
          "internalType": "string",
          "name": "",
          "type": "string"
        }
      ],
      "stateMutability": "view",
      "type": "function",
      "constant": true
    },
    {
      "inputs": [
        {
          "internalType": "uint256",
          "name": "index",
          "type": "uint256"
        }
      ],
      "name": "tokenByIndex",
      "outputs": [
        {
          "internalType": "uint256",
          "name": "",
          "type": "uint256"
        }
      ],
      "stateMutability": "view",
      "type": "function",
      "constant": true
    },
    {
      "inputs": [
        {
          "internalType": "address",
          "name": "owner",
          "type": "address"
        },
        {
          "internalType": "uint256",
          "name": "index",
          "type": "uint256"
        }
      ],
      "name": "tokenOfOwnerByIndex",
      "outputs": [
        {
          "internalType": "uint256",
          "name": "",
          "type": "uint256"
        }
      ],
      "stateMutability": "view",
      "type": "function",
      "constant": true
    },
    {
      "inputs": [],
      "name": "totalSupply",
      "outputs": [
        {
          "internalType": "uint256",
          "name": "",
          "type": "uint256"
        }
      ],
      "stateMutability": "view",
      "type": "function",
      "constant": true
    },
    {
      "inputs": [
        {
          "internalType": "address",
          "name": "from",
          "type": "address"
        },
        {
          "internalType": "address",
          "name": "to",
          "type": "address"
        },
        {
          "internalType": "uint256",
          "name": "tokenId",
          "type": "uint256"
        }
      ],
      "name": "transferFrom",
      "outputs": [],
      "stateMutability": "nonpayable",
      "type": "function"
    },
    {
      "inputs": [
        {
          "internalType": "address",
          "name": "newOwner",
          "type": "address"
        }
      ],
      "name": "transferOwnership",
      "outputs": [],
      "stateMutability": "nonpayable",
      "type": "function"
    },
    {
      "inputs": [
        {
          "internalType": "uint256",
          "name": "tokenId",
          "type": "uint256"
        }
      ],
      "name": "tokenURI",
      "outputs": [
        {
          "internalType": "string",
          "name": "",
          "type": "string"
        }
      ],
      "stateMutability": "view",
      "type": "function",
      "constant": true
    },
    {
      "inputs": [
        {
          "internalType": "bytes4",
          "name": "interfaceId",
          "type": "bytes4"
        }
      ],
      "name": "supportsInterface",
      "outputs": [
        {
          "internalType": "bool",
          "name": "",
          "type": "bool"
        }
      ],
      "stateMutability": "view",
      "type": "function",
      "constant": true
    },
    {
      "inputs": [
        {
          "internalType": "address",
          "name": "owner",
          "type": "address"
        },
        {
          "internalType": "address",
          "name": "operator",
          "type": "address"
        }
      ],
      "name": "isApprovedForAll",
      "outputs": [
        {
          "internalType": "bool",
          "name": "",
          "type": "bool"
        }
      ],
      "stateMutability": "view",
      "type": "function",
      "constant": true
    },
    {
      "inputs": [
        {
          "internalType": "address",
          "name": "receiver",
          "type": "address"
        },
        {
          "internalType": "uint256",
          "name": "tokenId",
          "type": "uint256"
        },
        {
          "internalType": "string",
          "name": "tokenUri",
          "type": "string"
        }
      ],
      "name": "mint",
      "outputs": [
        {
          "internalType": "uint256",
          "name": "",
          "type": "uint256"
        }
      ],
      "stateMutability": "nonpayable",
      "type": "function"
    },
    {
      "inputs": [
        {
          "internalType": "uint256",
          "name": "tokenId",
          "type": "uint256"
        },
        {
          "internalType": "string",
          "name": "tokenUri",
          "type": "string"
        },
        {
          "internalType": "address",
          "name": "from",
          "type": "address"
        },
        {
          "internalType": "address",
          "name": "to",
          "type": "address"
        }
      ],
      "name": "transferFromOrMint",
      "outputs": [],
      "stateMutability": "nonpayable",
      "type": "function"
    },
    {
      "inputs": [
        {
          "internalType": "uint256",
          "name": "tokenId",
          "type": "uint256"
        },
        {
          "internalType": "string",
          "name": "tokenUri",
          "type": "string"
        },
        {
          "internalType": "address",
          "name": "from",
          "type": "address"
        },
        {
          "internalType": "address",
          "name": "to",
          "type": "address"
        }
      ],
      "name": "mintAndTransfer",
      "outputs": [],
      "stateMutability": "nonpayable",
      "type": "function"
    }
  ],
  "bytecode": "0x60806040523480156200001157600080fd5b5060405162004213380380620042138339818101604052810190620000379190620003b0565b818181600090805190602001906200005192919062000163565b5080600190805190602001906200006a92919062000163565b5050506200008d620000816200009560201b60201c565b6200009d60201b60201c565b505062000499565b600033905090565b6000600b60009054906101000a900473ffffffffffffffffffffffffffffffffffffffff16905081600b60006101000a81548173ffffffffffffffffffffffffffffffffffffffff021916908373ffffffffffffffffffffffffffffffffffffffff1602179055508173ffffffffffffffffffffffffffffffffffffffff168173ffffffffffffffffffffffffffffffffffffffff167f8be0079c531659141344cd1fd0a4f28419497f9722a3daafe3b4186f6b6457e060405160405180910390a35050565b828054620001719062000464565b90600052602060002090601f016020900481019282620001955760008555620001e1565b82601f10620001b057805160ff1916838001178555620001e1565b82800160010185558215620001e1579182015b82811115620001e0578251825591602001919060010190620001c3565b5b509050620001f09190620001f4565b5090565b5b808211156200020f576000816000905550600101620001f5565b5090565b6000604051905090565b600080fd5b600080fd5b600080fd5b600080fd5b6000601f19601f8301169050919050565b7f4e487b7100000000000000000000000000000000000000000000000000000000600052604160045260246000fd5b6200027c8262000231565b810181811067ffffffffffffffff821117156200029e576200029d62000242565b5b80604052505050565b6000620002b362000213565b9050620002c1828262000271565b919050565b600067ffffffffffffffff821115620002e457620002e362000242565b5b620002ef8262000231565b9050602081019050919050565b60005b838110156200031c578082015181840152602081019050620002ff565b838111156200032c576000848401525b50505050565b6000620003496200034384620002c6565b620002a7565b9050828152602081018484840111156200036857620003676200022c565b5b62000375848285620002fc565b509392505050565b600082601f83011262000395576200039462000227565b5b8151620003a784826020860162000332565b91505092915050565b60008060408385031215620003ca57620003c96200021d565b5b600083015167ffffffffffffffff811115620003eb57620003ea62000222565b5b620003f9858286016200037d565b925050602083015167ffffffffffffffff8111156200041d576200041c62000222565b5b6200042b858286016200037d565b9150509250929050565b7f4e487b7100000000000000000000000000000000000000000000000000000000600052602260045260246000fd5b600060028204905060018216806200047d57607f821691505b60208210810362000493576200049262000435565b5b50919050565b613d6a80620004a96000396000f3fe608060405234801561001057600080fd5b506004361061014d5760003560e01c80636352211e116100c3578063b88d4fde1161007c578063b88d4fde1461039c578063c5d3e999146103b8578063c87b56dd146103d4578063d3fc986414610404578063e985e9c514610434578063f2fde38b146104645761014d565b80636352211e146102da57806370a082311461030a578063715018a61461033a5780638da5cb5b1461034457806395d89b4114610362578063a22cb465146103805761014d565b806318160ddd1161011557806318160ddd1461020857806323b872dd146102265780632d373a21146102425780632f745c591461025e57806342842e0e1461028e5780634f6ccce7146102aa5761014d565b806301ffc9a71461015257806306fdde0314610182578063081812fc146101a0578063095ea7b3146101d057806318054c37146101ec575b600080fd5b61016c60048036038101906101679190612755565b610480565b604051610179919061279d565b60405180910390f35b61018a610492565b6040516101979190612851565b60405180910390f35b6101ba60048036038101906101b591906128a9565b610524565b6040516101c79190612917565b60405180910390f35b6101ea60048036038101906101e5919061295e565b6105a9565b005b610206600480360381019061020191906129ca565b6106c0565b005b6102106107e5565b60405161021d9190612a19565b60405180910390f35b610240600480360381019061023b9190612a34565b6107f2565b005b61025c60048036038101906102579190612bbc565b610852565b005b6102786004803603810190610273919061295e565b61090a565b6040516102859190612a19565b60405180910390f35b6102a860048036038101906102a39190612a34565b6109af565b005b6102c460048036038101906102bf91906128a9565b6109cf565b6040516102d19190612a19565b60405180910390f35b6102f460048036038101906102ef91906128a9565b610a40565b6040516103019190612917565b60405180910390f35b610324600480360381019061031f9190612c3f565b610af1565b6040516103319190612a19565b60405180910390f35b610342610ba8565b005b61034c610c30565b6040516103599190612917565b60405180910390f35b61036a610c5a565b6040516103779190612851565b60405180910390f35b61039a600480360381019061039591906129ca565b610cec565b005b6103b660048036038101906103b19190612d0d565b610d02565b005b6103d260048036038101906103cd9190612bbc565b610d64565b005b6103ee60048036038101906103e991906128a9565b610e28565b6040516103fb9190612851565b60405180910390f35b61041e60048036038101906104199190612d90565b610e3a565b60405161042b9190612a19565b60405180910390f35b61044e60048036038101906104499190612dff565b610eed565b60405161045b919061279d565b60405180910390f35b61047e60048036038101906104799190612c3f565b610f01565b005b600061048b82610ff8565b9050919050565b6060600080546104a190612e6e565b80601f01602080910402602001604051908101604052809291908181526020018280546104cd90612e6e565b801561051a5780601f106104ef5761010080835404028352916020019161051a565b820191906000526020600020905b8154815290600101906020018083116104fd57829003601f168201915b5050505050905090565b600061052f82611072565b61056e576040517f08c379a000000000000000000000000000000000000000000000000000000000815260040161056590612f11565b60405180910390fd5b6004600083815260200190815260200160002060009054906101000a900473ffffffffffffffffffffffffffffffffffffffff169050919050565b60006105b482610a40565b90508073ffffffffffffffffffffffffffffffffffffffff168373ffffffffffffffffffffffffffffffffffffffff1603610624576040517f08c379a000000000000000000000000000000000000000000000000000000000815260040161061b90612fa3565b60405180910390fd5b8073ffffffffffffffffffffffffffffffffffffffff166106436110de565b73ffffffffffffffffffffffffffffffffffffffff16148061067257506106718161066c6110de565b610eed565b5b6106b1576040517f08c379a00000000000000000000000000000000000000000000000000000000081526004016106a890613035565b60405180910390fd5b6106bb83836110e6565b505050565b6106c86110de565b73ffffffffffffffffffffffffffffffffffffffff166106e6610c30565b73ffffffffffffffffffffffffffffffffffffffff161461073c576040517f08c379a0000000000000000000000000000000000000000000000000000000008152600401610733906130a1565b60405180910390fd5b80600c60008473ffffffffffffffffffffffffffffffffffffffff1673ffffffffffffffffffffffffffffffffffffffff16815260200190815260200160002060006101000a81548160ff0219169083151502179055508173ffffffffffffffffffffffffffffffffffffffff167f270dbb8ba4292910ae92862466486be25c355c837270a3d8824b36a8bc7c653b826040516107d9919061279d565b60405180910390a25050565b6000600880549050905090565b6108036107fd6110de565b8261119f565b610842576040517f08c379a000000000000000000000000000000000000000000000000000000000815260040161083990613133565b60405180910390fd5b61084d8383836111b3565b505050565b600c600061085e6110de565b73ffffffffffffffffffffffffffffffffffffffff1673ffffffffffffffffffffffffffffffffffffffff16815260200190815260200160002060009054906101000a900460ff166108e5576040517f08c379a00000000000000000000000000000000000000000000000000000000081526004016108dc906131c5565b60405180910390fd5b6108ef8285611419565b6108f98484611437565b6109048282866111b3565b50505050565b600061091583610af1565b8210610956576040517f08c379a000000000000000000000000000000000000000000000000000000000815260040161094d90613257565b60405180910390fd5b600660008473ffffffffffffffffffffffffffffffffffffffff1673ffffffffffffffffffffffffffffffffffffffff168152602001908152602001600020600083815260200190815260200160002054905092915050565b6109ca83838360405180602001604052806000815250610d02565b505050565b60006109d96107e5565b8210610a1a576040517f08c379a0000000000000000000000000000000000000000000000000000000008152600401610a11906132e9565b60405180910390fd5b60088281548110610a2e57610a2d613309565b5b90600052602060002001549050919050565b6000806002600084815260200190815260200160002060009054906101000a900473ffffffffffffffffffffffffffffffffffffffff169050600073ffffffffffffffffffffffffffffffffffffffff168173ffffffffffffffffffffffffffffffffffffffff1603610ae8576040517f08c379a0000000000000000000000000000000000000000000000000000000008152600401610adf906133aa565b60405180910390fd5b80915050919050565b60008073ffffffffffffffffffffffffffffffffffffffff168273ffffffffffffffffffffffffffffffffffffffff1603610b61576040517f08c379a0000000000000000000000000000000000000000000000000000000008152600401610b589061343c565b60405180910390fd5b600360008373ffffffffffffffffffffffffffffffffffffffff1673ffffffffffffffffffffffffffffffffffffffff168152602001908152602001600020549050919050565b610bb06110de565b73ffffffffffffffffffffffffffffffffffffffff16610bce610c30565b73ffffffffffffffffffffffffffffffffffffffff1614610c24576040517f08c379a0000000000000000000000000000000000000000000000000000000008152600401610c1b906130a1565b60405180910390fd5b610c2e60006114ab565b565b6000600b60009054906101000a900473ffffffffffffffffffffffffffffffffffffffff16905090565b606060018054610c6990612e6e565b80601f0160208091040260200160405190810160405280929190818152602001828054610c9590612e6e565b8015610ce25780601f10610cb757610100808354040283529160200191610ce2565b820191906000526020600020905b815481529060010190602001808311610cc557829003601f168201915b5050505050905090565b610cfe610cf76110de565b8383611571565b5050565b610d13610d0d6110de565b8361119f565b610d52576040517f08c379a0000000000000000000000000000000000000000000000000000000008152600401610d4990613133565b60405180910390fd5b610d5e848484846116dd565b50505050565b600c6000610d706110de565b73ffffffffffffffffffffffffffffffffffffffff1673ffffffffffffffffffffffffffffffffffffffff16815260200190815260200160002060009054906101000a900460ff16610df7576040517f08c379a0000000000000000000000000000000000000000000000000000000008152600401610dee906131c5565b60405180910390fd5b610e0084611072565b15610e1557610e108282866109af565b610e22565b610e2184848484610852565b5b50505050565b6060610e3382611739565b9050919050565b6000600c6000610e486110de565b73ffffffffffffffffffffffffffffffffffffffff1673ffffffffffffffffffffffffffffffffffffffff16815260200190815260200160002060009054906101000a900460ff16610ecf576040517f08c379a0000000000000000000000000000000000000000000000000000000008152600401610ec6906131c5565b60405180910390fd5b610ed98484611419565b610ee38383611437565b8290509392505050565b6000610ef9838361188a565b905092915050565b610f096110de565b73ffffffffffffffffffffffffffffffffffffffff16610f27610c30565b73ffffffffffffffffffffffffffffffffffffffff1614610f7d576040517f08c379a0000000000000000000000000000000000000000000000000000000008152600401610f74906130a1565b60405180910390fd5b600073ffffffffffffffffffffffffffffffffffffffff168173ffffffffffffffffffffffffffffffffffffffff1603610fec576040517f08c379a0000000000000000000000000000000000000000000000000000000008152600401610fe3906134ce565b60405180910390fd5b610ff5816114ab565b50565b60007f780e9d63000000000000000000000000000000000000000000000000000000007bffffffffffffffffffffffffffffffffffffffffffffffffffffffff1916827bffffffffffffffffffffffffffffffffffffffffffffffffffffffff1916148061106b575061106a826118f2565b5b9050919050565b60008073ffffffffffffffffffffffffffffffffffffffff166002600084815260200190815260200160002060009054906101000a900473ffffffffffffffffffffffffffffffffffffffff1673ffffffffffffffffffffffffffffffffffffffff1614159050919050565b600033905090565b816004600083815260200190815260200160002060006101000a81548173ffffffffffffffffffffffffffffffffffffffff021916908373ffffffffffffffffffffffffffffffffffffffff160217905550808273ffffffffffffffffffffffffffffffffffffffff1661115983610a40565b73ffffffffffffffffffffffffffffffffffffffff167f8c5be1e5ebec7d5bd14f71427d1e84f3dd0314c0f7b2291e5b200ac8c7c3b92560405160405180910390a45050565b60006111ab83836119d4565b905092915050565b8273ffffffffffffffffffffffffffffffffffffffff166111d382610a40565b73ffffffffffffffffffffffffffffffffffffffff1614611229576040517f08c379a000000000000000000000000000000000000000000000000000000000815260040161122090613560565b60405180910390fd5b600073ffffffffffffffffffffffffffffffffffffffff168273ffffffffffffffffffffffffffffffffffffffff1603611298576040517f08c379a000000000000000000000000000000000000000000000000000000000815260040161128f906135f2565b60405180910390fd5b6112a3838383611a3c565b6112ae6000826110e6565b6001600360008573ffffffffffffffffffffffffffffffffffffffff1673ffffffffffffffffffffffffffffffffffffffff16815260200190815260200160002060008282546112fe9190613641565b925050819055506001600360008473ffffffffffffffffffffffffffffffffffffffff1673ffffffffffffffffffffffffffffffffffffffff16815260200190815260200160002060008282546113559190613675565b92505081905550816002600083815260200190815260200160002060006101000a81548173ffffffffffffffffffffffffffffffffffffffff021916908373ffffffffffffffffffffffffffffffffffffffff160217905550808273ffffffffffffffffffffffffffffffffffffffff168473ffffffffffffffffffffffffffffffffffffffff167fddf252ad1be2c89b69c2b068fc378daa952ba7f163c4a11628f55a4df523b3ef60405160405180910390a4611414838383611a4c565b505050565b611433828260405180602001604052806000815250611a51565b5050565b61144082611072565b61147f576040517f08c379a00000000000000000000000000000000000000000000000000000000081526004016114769061373d565b60405180910390fd5b80600a600084815260200190815260200160002090805190602001906114a6929190612646565b505050565b6000600b60009054906101000a900473ffffffffffffffffffffffffffffffffffffffff16905081600b60006101000a81548173ffffffffffffffffffffffffffffffffffffffff021916908373ffffffffffffffffffffffffffffffffffffffff1602179055508173ffffffffffffffffffffffffffffffffffffffff168173ffffffffffffffffffffffffffffffffffffffff167f8be0079c531659141344cd1fd0a4f28419497f9722a3daafe3b4186f6b6457e060405160405180910390a35050565b8173ffffffffffffffffffffffffffffffffffffffff168373ffffffffffffffffffffffffffffffffffffffff16036115df576040517f08c379a00000000000000000000000000000000000000000000000000000000081526004016115d6906137a9565b60405180910390fd5b80600560008573ffffffffffffffffffffffffffffffffffffffff1673ffffffffffffffffffffffffffffffffffffffff16815260200190815260200160002060008473ffffffffffffffffffffffffffffffffffffffff1673ffffffffffffffffffffffffffffffffffffffff16815260200190815260200160002060006101000a81548160ff0219169083151502179055508173ffffffffffffffffffffffffffffffffffffffff168373ffffffffffffffffffffffffffffffffffffffff167f17307eab39ab6107e8899845ad3d59bd9653f200f220920489ca2b5937696c31836040516116d0919061279d565b60405180910390a3505050565b6116e88484846111b3565b6116f484848484611aac565b611733576040517f08c379a000000000000000000000000000000000000000000000000000000000815260040161172a9061383b565b60405180910390fd5b50505050565b606061174482611072565b611783576040517f08c379a000000000000000000000000000000000000000000000000000000000815260040161177a906138cd565b60405180910390fd5b6000600a600084815260200190815260200160002080546117a390612e6e565b80601f01602080910402602001604051908101604052809291908181526020018280546117cf90612e6e565b801561181c5780601f106117f15761010080835404028352916020019161181c565b820191906000526020600020905b8154815290600101906020018083116117ff57829003601f168201915b50505050509050600061182d611c33565b90506000815103611842578192505050611885565b60008251111561187757808260405160200161185f929190613929565b60405160208183030381529060405292505050611885565b61188084611c4a565b925050505b919050565b6000600c60008373ffffffffffffffffffffffffffffffffffffffff1673ffffffffffffffffffffffffffffffffffffffff16815260200190815260200160002060009054906101000a900460ff16806118ea57506118e98383611cf1565b5b905092915050565b60007f80ac58cd000000000000000000000000000000000000000000000000000000007bffffffffffffffffffffffffffffffffffffffffffffffffffffffff1916827bffffffffffffffffffffffffffffffffffffffffffffffffffffffff191614806119bd57507f5b5e139f000000000000000000000000000000000000000000000000000000007bffffffffffffffffffffffffffffffffffffffffffffffffffffffff1916827bffffffffffffffffffffffffffffffffffffffffffffffffffffffff1916145b806119cd57506119cc82611d85565b5b9050919050565b6000600c60008473ffffffffffffffffffffffffffffffffffffffff1673ffffffffffffffffffffffffffffffffffffffff16815260200190815260200160002060009054906101000a900460ff1680611a345750611a338383611def565b5b905092915050565b611a47838383611ecd565b505050565b505050565b611a5b8383611fdf565b611a686000848484611aac565b611aa7576040517f08c379a0000000000000000000000000000000000000000000000000000000008152600401611a9e9061383b565b60405180910390fd5b505050565b6000611acd8473ffffffffffffffffffffffffffffffffffffffff166121b8565b15611c26578373ffffffffffffffffffffffffffffffffffffffff1663150b7a02611af66110de565b8786866040518563ffffffff1660e01b8152600401611b1894939291906139a2565b6020604051808303816000875af1925050508015611b5457506040513d601f19601f82011682018060405250810190611b519190613a03565b60015b611bd6573d8060008114611b84576040519150601f19603f3d011682016040523d82523d6000602084013e611b89565b606091505b506000815103611bce576040517f08c379a0000000000000000000000000000000000000000000000000000000008152600401611bc59061383b565b60405180910390fd5b805181602001fd5b63150b7a0260e01b7bffffffffffffffffffffffffffffffffffffffffffffffffffffffff1916817bffffffffffffffffffffffffffffffffffffffffffffffffffffffff191614915050611c2b565b600190505b949350505050565b606060405180602001604052806000815250905090565b6060611c5582611072565b611c94576040517f08c379a0000000000000000000000000000000000000000000000000000000008152600401611c8b90613aa2565b60405180910390fd5b6000611c9e611c33565b90506000815111611cbe5760405180602001604052806000815250611ce9565b80611cc8846121db565b604051602001611cd9929190613929565b6040516020818303038152906040525b915050919050565b6000600560008473ffffffffffffffffffffffffffffffffffffffff1673ffffffffffffffffffffffffffffffffffffffff16815260200190815260200160002060008373ffffffffffffffffffffffffffffffffffffffff1673ffffffffffffffffffffffffffffffffffffffff16815260200190815260200160002060009054906101000a900460ff16905092915050565b60007f01ffc9a7000000000000000000000000000000000000000000000000000000007bffffffffffffffffffffffffffffffffffffffffffffffffffffffff1916827bffffffffffffffffffffffffffffffffffffffffffffffffffffffff1916149050919050565b6000611dfa82611072565b611e39576040517f08c379a0000000000000000000000000000000000000000000000000000000008152600401611e3090613b34565b60405180910390fd5b6000611e4483610a40565b90508073ffffffffffffffffffffffffffffffffffffffff168473ffffffffffffffffffffffffffffffffffffffff161480611e865750611e858185610eed565b5b80611ec457508373ffffffffffffffffffffffffffffffffffffffff16611eac84610524565b73ffffffffffffffffffffffffffffffffffffffff16145b91505092915050565b611ed883838361233b565b600073ffffffffffffffffffffffffffffffffffffffff168373ffffffffffffffffffffffffffffffffffffffff1603611f1a57611f1581612340565b611f59565b8173ffffffffffffffffffffffffffffffffffffffff168373ffffffffffffffffffffffffffffffffffffffff1614611f5857611f578382612389565b5b5b600073ffffffffffffffffffffffffffffffffffffffff168273ffffffffffffffffffffffffffffffffffffffff1603611f9b57611f96816124f6565b611fda565b8273ffffffffffffffffffffffffffffffffffffffff168273ffffffffffffffffffffffffffffffffffffffff1614611fd957611fd882826125c7565b5b5b505050565b600073ffffffffffffffffffffffffffffffffffffffff168273ffffffffffffffffffffffffffffffffffffffff160361204e576040517f08c379a000000000000000000000000000000000000000000000000000000000815260040161204590613ba0565b60405180910390fd5b61205781611072565b15612097576040517f08c379a000000000000000000000000000000000000000000000000000000000815260040161208e90613c0c565b60405180910390fd5b6120a360008383611a3c565b6001600360008473ffffffffffffffffffffffffffffffffffffffff1673ffffffffffffffffffffffffffffffffffffffff16815260200190815260200160002060008282546120f39190613675565b92505081905550816002600083815260200190815260200160002060006101000a81548173ffffffffffffffffffffffffffffffffffffffff021916908373ffffffffffffffffffffffffffffffffffffffff160217905550808273ffffffffffffffffffffffffffffffffffffffff16600073ffffffffffffffffffffffffffffffffffffffff167fddf252ad1be2c89b69c2b068fc378daa952ba7f163c4a11628f55a4df523b3ef60405160405180910390a46121b460008383611a4c565b5050565b6000808273ffffffffffffffffffffffffffffffffffffffff163b119050919050565b606060008203612222576040518060400160405280600181526020017f30000000000000000000000000000000000000000000000000000000000000008152509050612336565b600082905060005b6000821461225457808061223d90613c2c565b915050600a8261224d9190613ca3565b915061222a565b60008167ffffffffffffffff8111156122705761226f612a91565b5b6040519080825280601f01601f1916602001820160405280156122a25781602001600182028036833780820191505090505b5090505b6000851461232f576001826122bb9190613641565b9150600a856122ca9190613cd4565b60306122d69190613675565b60f81b8183815181106122ec576122eb613309565b5b60200101907effffffffffffffffffffffffffffffffffffffffffffffffffffffffffffff1916908160001a905350600a856123289190613ca3565b94506122a6565b8093505050505b919050565b505050565b6008805490506009600083815260200190815260200160002081905550600881908060018154018082558091505060019003906000526020600020016000909190919091505550565b6000600161239684610af1565b6123a09190613641565b9050600060076000848152602001908152602001600020549050818114612485576000600660008673ffffffffffffffffffffffffffffffffffffffff1673ffffffffffffffffffffffffffffffffffffffff168152602001908152602001600020600084815260200190815260200160002054905080600660008773ffffffffffffffffffffffffffffffffffffffff1673ffffffffffffffffffffffffffffffffffffffff168152602001908152602001600020600084815260200190815260200160002081905550816007600083815260200190815260200160002081905550505b6007600084815260200190815260200160002060009055600660008573ffffffffffffffffffffffffffffffffffffffff1673ffffffffffffffffffffffffffffffffffffffff16815260200190815260200160002060008381526020019081526020016000206000905550505050565b6000600160088054905061250a9190613641565b905060006009600084815260200190815260200160002054905060006008838154811061253a57612539613309565b5b90600052602060002001549050806008838154811061255c5761255b613309565b5b9060005260206000200181905550816009600083815260200190815260200160002081905550600960008581526020019081526020016000206000905560088054806125ab576125aa613d05565b5b6001900381819060005260206000200160009055905550505050565b60006125d283610af1565b905081600660008573ffffffffffffffffffffffffffffffffffffffff1673ffffffffffffffffffffffffffffffffffffffff168152602001908152602001600020600083815260200190815260200160002081905550806007600084815260200190815260200160002081905550505050565b82805461265290612e6e565b90600052602060002090601f01602090048101928261267457600085556126bb565b82601f1061268d57805160ff19168380011785556126bb565b828001600101855582156126bb579182015b828111156126ba57825182559160200191906001019061269f565b5b5090506126c891906126cc565b5090565b5b808211156126e55760008160009055506001016126cd565b5090565b6000604051905090565b600080fd5b600080fd5b60007fffffffff0000000000000000000000000000000000000000000000000000000082169050919050565b612732816126fd565b811461273d57600080fd5b50565b60008135905061274f81612729565b92915050565b60006020828403121561276b5761276a6126f3565b5b600061277984828501612740565b91505092915050565b60008115159050919050565b61279781612782565b82525050565b60006020820190506127b2600083018461278e565b92915050565b600081519050919050565b600082825260208201905092915050565b60005b838110156127f25780820151818401526020810190506127d7565b83811115612801576000848401525b50505050565b6000601f19601f8301169050919050565b6000612823826127b8565b61282d81856127c3565b935061283d8185602086016127d4565b61284681612807565b840191505092915050565b6000602082019050818103600083015261286b8184612818565b905092915050565b6000819050919050565b61288681612873565b811461289157600080fd5b50565b6000813590506128a38161287d565b92915050565b6000602082840312156128bf576128be6126f3565b5b60006128cd84828501612894565b91505092915050565b600073ffffffffffffffffffffffffffffffffffffffff82169050919050565b6000612901826128d6565b9050919050565b612911816128f6565b82525050565b600060208201905061292c6000830184612908565b92915050565b61293b816128f6565b811461294657600080fd5b50565b60008135905061295881612932565b92915050565b60008060408385031215612975576129746126f3565b5b600061298385828601612949565b925050602061299485828601612894565b9150509250929050565b6129a781612782565b81146129b257600080fd5b50565b6000813590506129c48161299e565b92915050565b600080604083850312156129e1576129e06126f3565b5b60006129ef85828601612949565b9250506020612a00858286016129b5565b9150509250929050565b612a1381612873565b82525050565b6000602082019050612a2e6000830184612a0a565b92915050565b600080600060608486031215612a4d57612a4c6126f3565b5b6000612a5b86828701612949565b9350506020612a6c86828701612949565b9250506040612a7d86828701612894565b9150509250925092565b600080fd5b600080fd5b7f4e487b7100000000000000000000000000000000000000000000000000000000600052604160045260246000fd5b612ac982612807565b810181811067ffffffffffffffff82111715612ae857612ae7612a91565b5b80604052505050565b6000612afb6126e9565b9050612b078282612ac0565b919050565b600067ffffffffffffffff821115612b2757612b26612a91565b5b612b3082612807565b9050602081019050919050565b82818337600083830152505050565b6000612b5f612b5a84612b0c565b612af1565b905082815260208101848484011115612b7b57612b7a612a8c565b5b612b86848285612b3d565b509392505050565b600082601f830112612ba357612ba2612a87565b5b8135612bb3848260208601612b4c565b91505092915050565b60008060008060808587031215612bd657612bd56126f3565b5b6000612be487828801612894565b945050602085013567ffffffffffffffff811115612c0557612c046126f8565b5b612c1187828801612b8e565b9350506040612c2287828801612949565b9250506060612c3387828801612949565b91505092959194509250565b600060208284031215612c5557612c546126f3565b5b6000612c6384828501612949565b91505092915050565b600067ffffffffffffffff821115612c8757612c86612a91565b5b612c9082612807565b9050602081019050919050565b6000612cb0612cab84612c6c565b612af1565b905082815260208101848484011115612ccc57612ccb612a8c565b5b612cd7848285612b3d565b509392505050565b600082601f830112612cf457612cf3612a87565b5b8135612d04848260208601612c9d565b91505092915050565b60008060008060808587031215612d2757612d266126f3565b5b6000612d3587828801612949565b9450506020612d4687828801612949565b9350506040612d5787828801612894565b925050606085013567ffffffffffffffff811115612d7857612d776126f8565b5b612d8487828801612cdf565b91505092959194509250565b600080600060608486031215612da957612da86126f3565b5b6000612db786828701612949565b9350506020612dc886828701612894565b925050604084013567ffffffffffffffff811115612de957612de86126f8565b5b612df586828701612b8e565b9150509250925092565b60008060408385031215612e1657612e156126f3565b5b6000612e2485828601612949565b9250506020612e3585828601612949565b9150509250929050565b7f4e487b7100000000000000000000000000000000000000000000000000000000600052602260045260246000fd5b60006002820490506001821680612e8657607f821691505b602082108103612e9957612e98612e3f565b5b50919050565b7f4552433732313a20617070726f76656420717565727920666f72206e6f6e657860008201527f697374656e7420746f6b656e0000000000000000000000000000000000000000602082015250565b6000612efb602c836127c3565b9150612f0682612e9f565b604082019050919050565b60006020820190508181036000830152612f2a81612eee565b9050919050565b7f4552433732313a20617070726f76616c20746f2063757272656e74206f776e6560008201527f7200000000000000000000000000000000000000000000000000000000000000602082015250565b6000612f8d6021836127c3565b9150612f9882612f31565b604082019050919050565b60006020820190508181036000830152612fbc81612f80565b9050919050565b7f4552433732313a20617070726f76652063616c6c6572206973206e6f74206f7760008201527f6e6572206e6f7220617070726f76656420666f7220616c6c0000000000000000602082015250565b600061301f6038836127c3565b915061302a82612fc3565b604082019050919050565b6000602082019050818103600083015261304e81613012565b9050919050565b7f4f776e61626c653a2063616c6c6572206973206e6f7420746865206f776e6572600082015250565b600061308b6020836127c3565b915061309682613055565b602082019050919050565b600060208201905081810360008301526130ba8161307e565b9050919050565b7f4552433732313a207472616e736665722063616c6c6572206973206e6f74206f60008201527f776e6572206e6f7220617070726f766564000000000000000000000000000000602082015250565b600061311d6031836127c3565b9150613128826130c1565b604082019050919050565b6000602082019050818103600083015261314c81613110565b9050919050565b7f417070726f76616c3a206f70657261746f72206973206e6f7420617070726f7660008201527f6564000000000000000000000000000000000000000000000000000000000000602082015250565b60006131af6022836127c3565b91506131ba82613153565b604082019050919050565b600060208201905081810360008301526131de816131a2565b9050919050565b7f455243373231456e756d657261626c653a206f776e657220696e646578206f7560008201527f74206f6620626f756e6473000000000000000000000000000000000000000000602082015250565b6000613241602b836127c3565b915061324c826131e5565b604082019050919050565b6000602082019050818103600083015261327081613234565b9050919050565b7f455243373231456e756d657261626c653a20676c6f62616c20696e646578206f60008201527f7574206f6620626f756e64730000000000000000000000000000000000000000602082015250565b60006132d3602c836127c3565b91506132de82613277565b604082019050919050565b60006020820190508181036000830152613302816132c6565b9050919050565b7f4e487b7100000000000000000000000000000000000000000000000000000000600052603260045260246000fd5b7f4552433732313a206f776e657220717565727920666f72206e6f6e657869737460008201527f656e7420746f6b656e0000000000000000000000000000000000000000000000602082015250565b60006133946029836127c3565b915061339f82613338565b604082019050919050565b600060208201905081810360008301526133c381613387565b9050919050565b7f4552433732313a2062616c616e636520717565727920666f7220746865207a6560008201527f726f206164647265737300000000000000000000000000000000000000000000602082015250565b6000613426602a836127c3565b9150613431826133ca565b604082019050919050565b6000602082019050818103600083015261345581613419565b9050919050565b7f4f776e61626c653a206e6577206f776e657220697320746865207a65726f206160008201527f6464726573730000000000000000000000000000000000000000000000000000602082015250565b60006134b86026836127c3565b91506134c38261345c565b604082019050919050565b600060208201905081810360008301526134e7816134ab565b9050919050565b7f4552433732313a207472616e736665722066726f6d20696e636f72726563742060008201527f6f776e6572000000000000000000000000000000000000000000000000000000602082015250565b600061354a6025836127c3565b9150613555826134ee565b604082019050919050565b600060208201905081810360008301526135798161353d565b9050919050565b7f4552433732313a207472616e7366657220746f20746865207a65726f2061646460008201527f7265737300000000000000000000000000000000000000000000000000000000602082015250565b60006135dc6024836127c3565b91506135e782613580565b604082019050919050565b6000602082019050818103600083015261360b816135cf565b9050919050565b7f4e487b7100000000000000000000000000000000000000000000000000000000600052601160045260246000fd5b600061364c82612873565b915061365783612873565b92508282101561366a57613669613612565b5b828203905092915050565b600061368082612873565b915061368b83612873565b9250827fffffffffffffffffffffffffffffffffffffffffffffffffffffffffffffffff038211156136c0576136bf613612565b5b828201905092915050565b7f45524337323155524953746f726167653a2055524920736574206f66206e6f6e60008201527f6578697374656e7420746f6b656e000000000000000000000000000000000000602082015250565b6000613727602e836127c3565b9150613732826136cb565b604082019050919050565b600060208201905081810360008301526137568161371a565b9050919050565b7f4552433732313a20617070726f766520746f2063616c6c657200000000000000600082015250565b60006137936019836127c3565b915061379e8261375d565b602082019050919050565b600060208201905081810360008301526137c281613786565b9050919050565b7f4552433732313a207472616e7366657220746f206e6f6e20455243373231526560008201527f63656976657220696d706c656d656e7465720000000000000000000000000000602082015250565b60006138256032836127c3565b9150613830826137c9565b604082019050919050565b6000602082019050818103600083015261385481613818565b9050919050565b7f45524337323155524953746f726167653a2055524920717565727920666f722060008201527f6e6f6e6578697374656e7420746f6b656e000000000000000000000000000000602082015250565b60006138b76031836127c3565b91506138c28261385b565b604082019050919050565b600060208201905081810360008301526138e6816138aa565b9050919050565b600081905092915050565b6000613903826127b8565b61390d81856138ed565b935061391d8185602086016127d4565b80840191505092915050565b600061393582856138f8565b915061394182846138f8565b91508190509392505050565b600081519050919050565b600082825260208201905092915050565b60006139748261394d565b61397e8185613958565b935061398e8185602086016127d4565b61399781612807565b840191505092915050565b60006080820190506139b76000830187612908565b6139c46020830186612908565b6139d16040830185612a0a565b81810360608301526139e38184613969565b905095945050505050565b6000815190506139fd81612729565b92915050565b600060208284031215613a1957613a186126f3565b5b6000613a27848285016139ee565b91505092915050565b7f4552433732314d657461646174613a2055524920717565727920666f72206e6f60008201527f6e6578697374656e7420746f6b656e0000000000000000000000000000000000602082015250565b6000613a8c602f836127c3565b9150613a9782613a30565b604082019050919050565b60006020820190508181036000830152613abb81613a7f565b9050919050565b7f4552433732313a206f70657261746f7220717565727920666f72206e6f6e657860008201527f697374656e7420746f6b656e0000000000000000000000000000000000000000602082015250565b6000613b1e602c836127c3565b9150613b2982613ac2565b604082019050919050565b60006020820190508181036000830152613b4d81613b11565b9050919050565b7f4552433732313a206d696e7420746f20746865207a65726f2061646472657373600082015250565b6000613b8a6020836127c3565b9150613b9582613b54565b602082019050919050565b60006020820190508181036000830152613bb981613b7d565b9050919050565b7f4552433732313a20746f6b656e20616c7265616479206d696e74656400000000600082015250565b6000613bf6601c836127c3565b9150613c0182613bc0565b602082019050919050565b60006020820190508181036000830152613c2581613be9565b9050919050565b6000613c3782612873565b91507fffffffffffffffffffffffffffffffffffffffffffffffffffffffffffffffff8203613c6957613c68613612565b5b600182019050919050565b7f4e487b7100000000000000000000000000000000000000000000000000000000600052601260045260246000fd5b6000613cae82612873565b9150613cb983612873565b925082613cc957613cc8613c74565b5b828204905092915050565b6000613cdf82612873565b9150613cea83612873565b925082613cfa57613cf9613c74565b5b828206905092915050565b7f4e487b7100000000000000000000000000000000000000000000000000000000600052603160045260246000fdfea26469706673582212206be18671ffd5471240b199935c45f9c3e82b764b9c121c5e85fa58a85b9a9c0264736f6c634300080d0033",
  "immutableReferences": {},
  "source": "// SPDX-License-Identifier: MIT\npragma solidity ^0.8.1;\n\nimport \"@openzeppelin/contracts/utils/math/SafeMath.sol\";\nimport \"@openzeppelin/contracts/token/ERC721/extensions/ERC721Enumerable.sol\";\nimport \"@openzeppelin/contracts/token/ERC721/extensions/ERC721URIStorage.sol\";\nimport \"./ERC721DefaultApproval.sol\";\n\n/**\n * @title ERC721Lazy\n * @dev This contract is inherited from ERC721Enumerable,\n * ERC721URIStorage smart contract from openzepplin library.\n * ERC721Lazy smart contract supports normal minting as well as lazy minting.\n * \n * The {transferFromOrMint} function can be used for lazy minting.\n */\ncontract ERC721Lazy is ERC721Enumerable,ERC721URIStorage, ERC721DefaultApproval {\n    using SafeMath for uint256;\n        \n    constructor(string memory name, string memory symbol) ERC721(name, symbol) { }\n\n    function _beforeTokenTransfer(address from, address to, uint256 tokenId)\n        internal\n        override(ERC721, ERC721Enumerable)\n    {\n        super._beforeTokenTransfer(from, to, tokenId);\n    }\n    function _burn(uint256 tokenId) internal override(ERC721, ERC721URIStorage) {\n        super._burn(tokenId);\n    }\n\n    function tokenURI(uint256 tokenId) public view override(ERC721, ERC721URIStorage) returns (string memory)\n    {\n        return super.tokenURI(tokenId);\n    }\n\n    function supportsInterface(bytes4 interfaceId) public view override(ERC721, ERC721Enumerable) returns (bool)\n    {\n        return super.supportsInterface(interfaceId);\n    }\n\n    function _isApprovedOrOwner(address spender, uint256 tokenId) internal virtual override(ERC721, ERC721DefaultApproval) view returns (bool) {\n        return ERC721DefaultApproval._isApprovedOrOwner(spender, tokenId);\n    }\n\n    function isApprovedForAll(address owner, address operator) public view virtual override(ERC721DefaultApproval, ERC721, IERC721) returns (bool) {\n        return ERC721DefaultApproval.isApprovedForAll(owner, operator);\n    }\n\n    //mint\n    function mint(address receiver, uint256 tokenId, string memory tokenUri) public onlyOperator returns (uint256) {\n\n        _safeMint(receiver, tokenId);\n        _setTokenURI(tokenId, tokenUri);\n\n        return tokenId;\n    }\n\n    /**\n     * @dev Releases the amount of tokens held againts the address\n     *\n     * @param tokenId The token Id\n     * @param tokenUri The token uri associated with the token Id\n     * @param from The address from which token wil be transfered\n     * @param to The address to which token will be transfered\n     *\n     * Emits two {Transfer} events. One when the token is mint, while other when the token is transferred.\n     */\n    function transferFromOrMint(uint256 tokenId, string memory tokenUri, address from, address to) external onlyOperator {\n        if(_exists(tokenId)){\n            safeTransferFrom(from, to, tokenId);\n        } else{\n            mintAndTransfer(tokenId, tokenUri, from, to);\n        }\n    }\n\n    /**\n     * @dev Releases the amount of tokens held againts the address\n     *\n     * @param tokenId The token Id\n     * @param tokenUri The token uri associated with the token Id\n     * @param from The address from which token wil be transfered\n     * @param to The address to which token will be transfered\n     *\n     * Emits two {Transfer} events. One when the token is mint, while other when the token is transferred.\n     */\n    function mintAndTransfer(uint256 tokenId, string memory tokenUri, address from, address to) public onlyOperator {\n        _safeMint(from, tokenId);\n        _setTokenURI(tokenId, tokenUri);\n        _transfer(from, to, tokenId);\n    }\n\n}",
  "sourcePath": "/home/susheelkumard/Documents/new_projects/git_repos/NFT/nft_marketplace_backend/smart_contracts/tokens/contracts/ERC721Lazy.sol",
  "compiler": {
    "name": "solc",
    "version": "0.8.13+commit.abaa5c0e.Emscripten.clang"
  },
  "schemaVersion": "3.4.7",
  "updatedAt": "2022-06-17T13:33:28.248Z",
  "networkType": "ethereum",
  "devdoc": {
    "details": "This contract is inherited from ERC721Enumerable, ERC721URIStorage smart contract from openzepplin library. ERC721Lazy smart contract supports normal minting as well as lazy minting.  The {transferFromOrMint} function can be used for lazy minting.",
    "kind": "dev",
    "methods": {
      "approve(address,uint256)": {
        "details": "See {IERC721-approve}."
      },
      "balanceOf(address)": {
        "details": "See {IERC721-balanceOf}."
      },
      "getApproved(uint256)": {
        "details": "See {IERC721-getApproved}."
      },
      "mintAndTransfer(uint256,string,address,address)": {
        "details": "Releases the amount of tokens held againts the address",
        "params": {
          "from": "The address from which token wil be transfered",
          "to": "The address to which token will be transfered Emits two {Transfer} events. One when the token is mint, while other when the token is transferred.",
          "tokenId": "The token Id",
          "tokenUri": "The token uri associated with the token Id"
        }
      },
      "name()": {
        "details": "See {IERC721Metadata-name}."
      },
      "owner()": {
        "details": "Returns the address of the current owner."
      },
      "ownerOf(uint256)": {
        "details": "See {IERC721-ownerOf}."
      },
      "renounceOwnership()": {
        "details": "Leaves the contract without owner. It will not be possible to call `onlyOwner` functions anymore. Can only be called by the current owner. NOTE: Renouncing ownership will leave the contract without an owner, thereby removing any functionality that is only available to the owner."
      },
      "safeTransferFrom(address,address,uint256)": {
        "details": "See {IERC721-safeTransferFrom}."
      },
      "safeTransferFrom(address,address,uint256,bytes)": {
        "details": "See {IERC721-safeTransferFrom}."
      },
      "setApprovalForAll(address,bool)": {
        "details": "See {IERC721-setApprovalForAll}."
      },
      "symbol()": {
        "details": "See {IERC721Metadata-symbol}."
      },
      "tokenByIndex(uint256)": {
        "details": "See {IERC721Enumerable-tokenByIndex}."
      },
      "tokenOfOwnerByIndex(address,uint256)": {
        "details": "See {IERC721Enumerable-tokenOfOwnerByIndex}."
      },
      "totalSupply()": {
        "details": "See {IERC721Enumerable-totalSupply}."
      },
      "transferFrom(address,address,uint256)": {
        "details": "See {IERC721-transferFrom}."
      },
      "transferFromOrMint(uint256,string,address,address)": {
        "details": "Releases the amount of tokens held againts the address",
        "params": {
          "from": "The address from which token wil be transfered",
          "to": "The address to which token will be transfered Emits two {Transfer} events. One when the token is mint, while other when the token is transferred.",
          "tokenId": "The token Id",
          "tokenUri": "The token uri associated with the token Id"
        }
      },
      "transferOwnership(address)": {
        "details": "Transfers ownership of the contract to a new account (`newOwner`). Can only be called by the current owner."
      }
    },
    "title": "ERC721Lazy",
    "version": 1
  },
  "userdoc": {
    "kind": "user",
    "methods": {},
    "version": 1
  }
}